{
  "_format": "hh-sol-artifact-1",
  "contractName": "Staking",
  "sourceName": "contracts/Staking.sol",
  "abi": [
    {
      "inputs": [
        {
          "internalType": "address",
          "name": "heroNft",
          "type": "address"
        },
        {
          "internalType": "uint256",
          "name": "_rewardPerSecond",
          "type": "uint256"
        }
      ],
      "stateMutability": "nonpayable",
      "type": "constructor"
    },
    {
      "inputs": [
        {
          "internalType": "address",
          "name": "owner",
          "type": "address"
        }
      ],
      "name": "OwnableInvalidOwner",
      "type": "error"
    },
    {
      "inputs": [
        {
          "internalType": "address",
          "name": "account",
          "type": "address"
        }
      ],
      "name": "OwnableUnauthorizedAccount",
      "type": "error"
    },
    {
      "anonymous": false,
      "inputs": [
        {
          "indexed": true,
          "internalType": "address",
          "name": "user",
          "type": "address"
        },
        {
          "indexed": false,
          "internalType": "uint256",
          "name": "amount",
          "type": "uint256"
        }
      ],
      "name": "Claimed",
      "type": "event"
    },
    {
      "anonymous": false,
      "inputs": [
        {
          "indexed": true,
          "internalType": "address",
          "name": "previousOwner",
          "type": "address"
        },
        {
          "indexed": true,
          "internalType": "address",
          "name": "newOwner",
          "type": "address"
        }
      ],
      "name": "OwnershipTransferred",
      "type": "event"
    },
    {
      "anonymous": false,
      "inputs": [
        {
          "indexed": true,
          "internalType": "address",
          "name": "user",
          "type": "address"
        },
        {
          "indexed": false,
          "internalType": "uint256[]",
          "name": "tokenIds",
          "type": "uint256[]"
        }
      ],
      "name": "Staked",
      "type": "event"
    },
    {
      "anonymous": false,
      "inputs": [
        {
          "indexed": true,
          "internalType": "address",
          "name": "user",
          "type": "address"
        },
        {
          "indexed": false,
          "internalType": "uint256[]",
          "name": "tokenIds",
          "type": "uint256[]"
        }
      ],
      "name": "Unstaked",
      "type": "event"
    },
    {
      "inputs": [
        {
          "internalType": "uint256[]",
          "name": "tokenIds",
          "type": "uint256[]"
        }
      ],
      "name": "claimRewards",
      "outputs": [],
      "stateMutability": "nonpayable",
      "type": "function"
    },
    {
      "inputs": [],
      "name": "hero",
      "outputs": [
        {
          "internalType": "contract IERC721",
          "name": "",
          "type": "address"
        }
      ],
      "stateMutability": "view",
      "type": "function"
    },
    {
      "inputs": [
        {
          "internalType": "uint256",
          "name": "tokenId",
          "type": "uint256"
        }
      ],
      "name": "isStaked",
      "outputs": [
        {
          "internalType": "bool",
          "name": "",
          "type": "bool"
        }
      ],
      "stateMutability": "view",
      "type": "function"
    },
    {
      "inputs": [
        {
          "internalType": "address",
          "name": "",
          "type": "address"
        },
        {
          "internalType": "address",
          "name": "",
          "type": "address"
        },
        {
          "internalType": "uint256",
          "name": "",
          "type": "uint256"
        },
        {
          "internalType": "bytes",
          "name": "",
          "type": "bytes"
        }
      ],
      "name": "onERC721Received",
      "outputs": [
        {
          "internalType": "bytes4",
          "name": "",
          "type": "bytes4"
        }
      ],
      "stateMutability": "nonpayable",
      "type": "function"
    },
    {
      "inputs": [],
      "name": "owner",
      "outputs": [
        {
          "internalType": "address",
          "name": "",
          "type": "address"
        }
      ],
      "stateMutability": "view",
      "type": "function"
    },
    {
      "inputs": [
        {
          "internalType": "address",
          "name": "user",
          "type": "address"
        }
      ],
      "name": "pendingRewards",
      "outputs": [
        {
          "internalType": "uint256",
          "name": "amount",
          "type": "uint256"
        }
      ],
      "stateMutability": "view",
      "type": "function"
    },
    {
      "inputs": [
        {
          "internalType": "address",
          "name": "user",
          "type": "address"
        },
        {
          "internalType": "uint256[]",
          "name": "tokenIds",
          "type": "uint256[]"
        }
      ],
      "name": "pendingRewardsFor",
      "outputs": [
        {
          "internalType": "uint256",
          "name": "amount",
          "type": "uint256"
        }
      ],
      "stateMutability": "view",
      "type": "function"
    },
    {
      "inputs": [],
      "name": "renounceOwnership",
      "outputs": [],
      "stateMutability": "nonpayable",
      "type": "function"
    },
    {
      "inputs": [],
      "name": "rewardPerSecond",
      "outputs": [
        {
          "internalType": "uint256",
          "name": "",
          "type": "uint256"
        }
      ],
      "stateMutability": "view",
      "type": "function"
    },
    {
      "inputs": [
        {
          "internalType": "uint256",
          "name": "value",
          "type": "uint256"
        }
      ],
      "name": "setRewardPerSecond",
      "outputs": [],
      "stateMutability": "nonpayable",
      "type": "function"
    },
    {
      "inputs": [
        {
          "internalType": "uint256[]",
          "name": "tokenIds",
          "type": "uint256[]"
        }
      ],
      "name": "stake",
      "outputs": [],
      "stateMutability": "nonpayable",
      "type": "function"
    },
    {
      "inputs": [
        {
          "internalType": "uint256",
          "name": "",
          "type": "uint256"
        }
      ],
      "name": "stakes",
      "outputs": [
        {
          "internalType": "address",
          "name": "owner",
          "type": "address"
        },
        {
          "internalType": "uint64",
          "name": "since",
          "type": "uint64"
        }
      ],
      "stateMutability": "view",
      "type": "function"
    },
    {
      "inputs": [
        {
          "internalType": "address",
          "name": "newOwner",
          "type": "address"
        }
      ],
      "name": "transferOwnership",
      "outputs": [],
      "stateMutability": "nonpayable",
      "type": "function"
    },
    {
      "inputs": [
        {
          "internalType": "uint256[]",
          "name": "tokenIds",
          "type": "uint256[]"
        }
      ],
      "name": "unstake",
      "outputs": [],
      "stateMutability": "nonpayable",
      "type": "function"
    }
  ],
  "bytecode": "0x60a06040523480156200001157600080fd5b5060405162001aa638038062001aa683398181016040528101906200003791906200026b565b33600073ffffffffffffffffffffffffffffffffffffffff168173ffffffffffffffffffffffffffffffffffffffff1603620000ad5760006040517f1e4fbdf7000000000000000000000000000000000000000000000000000000008152600401620000a49190620002c3565b60405180910390fd5b620000be816200010260201b60201c565b508173ffffffffffffffffffffffffffffffffffffffff1660808173ffffffffffffffffffffffffffffffffffffffff1681525050806001819055505050620002e0565b60008060009054906101000a900473ffffffffffffffffffffffffffffffffffffffff169050816000806101000a81548173ffffffffffffffffffffffffffffffffffffffff021916908373ffffffffffffffffffffffffffffffffffffffff1602179055508173ffffffffffffffffffffffffffffffffffffffff168173ffffffffffffffffffffffffffffffffffffffff167f8be0079c531659141344cd1fd0a4f28419497f9722a3daafe3b4186f6b6457e060405160405180910390a35050565b600080fd5b600073ffffffffffffffffffffffffffffffffffffffff82169050919050565b6000620001f882620001cb565b9050919050565b6200020a81620001eb565b81146200021657600080fd5b50565b6000815190506200022a81620001ff565b92915050565b6000819050919050565b620002458162000230565b81146200025157600080fd5b50565b60008151905062000265816200023a565b92915050565b60008060408385031215620002855762000284620001c6565b5b6000620002958582860162000219565b9250506020620002a88582860162000254565b9150509250929050565b620002bd81620001eb565b82525050565b6000602082019050620002da6000830184620002b2565b92915050565b60805161179c6200030a600039600081816103a3015281816107b80152610beb015261179c6000f3fe608060405234801561001057600080fd5b50600436106100ea5760003560e01c80638da5cb5b1161008c578063c89d262911610066578063c89d262914610237578063d5a44f8614610267578063e449f34114610298578063f2fde38b146102b4576100ea565b80638da5cb5b146101cb5780638f10369a146101e9578063baa51f8614610207576100ea565b80635eac6239116100c85780635eac62391461016b57806366da581514610187578063715018a6146101a35780637f513d5d146101ad576100ea565b80630fbf0a93146100ef578063150b7a021461010b57806331d7a2621461013b575b600080fd5b61010960048036038101906101049190610f2e565b6102d0565b005b61012560048036038101906101209190611150565b610554565b604051610132919061120e565b60405180910390f35b61015560048036038101906101509190611229565b610568565b6040516101629190611265565b60405180910390f35b61018560048036038101906101809190610f2e565b610579565b005b6101a1600480360381019061019c9190611280565b610790565b005b6101ab6107a2565b005b6101b56107b6565b6040516101c2919061130c565b60405180910390f35b6101d36107da565b6040516101e09190611336565b60405180910390f35b6101f1610803565b6040516101fe9190611265565b60405180910390f35b610221600480360381019061021c9190611280565b610809565b60405161022e919061136c565b60405180910390f35b610251600480360381019061024c9190611387565b610878565b60405161025e9190611265565b60405180910390f35b610281600480360381019061027c9190611280565b6109f1565b60405161028f92919061140a565b60405180910390f35b6102b260048036038101906102ad9190610f2e565b610a49565b005b6102ce60048036038101906102c99190611229565b610cdc565b005b60005b828290508110156104ff5760008383838181106102f3576102f2611433565b5b905060200201359050600073ffffffffffffffffffffffffffffffffffffffff166002600083815260200190815260200160002060000160009054906101000a900473ffffffffffffffffffffffffffffffffffffffff1673ffffffffffffffffffffffffffffffffffffffff16146103a1576040517f08c379a0000000000000000000000000000000000000000000000000000000008152600401610398906114bf565b60405180910390fd5b7f000000000000000000000000000000000000000000000000000000000000000073ffffffffffffffffffffffffffffffffffffffff166342842e0e3330846040518463ffffffff1660e01b81526004016103fe939291906114df565b600060405180830381600087803b15801561041857600080fd5b505af115801561042c573d6000803e3d6000fd5b5050505060405180604001604052803373ffffffffffffffffffffffffffffffffffffffff1681526020014267ffffffffffffffff168152506002600083815260200190815260200160002060008201518160000160006101000a81548173ffffffffffffffffffffffffffffffffffffffff021916908373ffffffffffffffffffffffffffffffffffffffff16021790555060208201518160000160146101000a81548167ffffffffffffffff021916908367ffffffffffffffff1602179055509050505080806001019150506102d3565b503373ffffffffffffffffffffffffffffffffffffffff167f134b166c6094cc1ccbf1e3353ce5c3cd9fd29869051bdb999895854d77cc5ef68383604051610548929190611591565b60405180910390a25050565b600063150b7a0260e01b9050949350505050565b600080600090506000915050919050565b6000805b8383905081101561073c57600084848381811061059d5761059c611433565b5b90506020020135905060006002600083815260200190815260200160002090503373ffffffffffffffffffffffffffffffffffffffff168160000160009054906101000a900473ffffffffffffffffffffffffffffffffffffffff1673ffffffffffffffffffffffffffffffffffffffff161461064f576040517f08c379a000000000000000000000000000000000000000000000000000000000815260040161064690611601565b60405180910390fd5b60008160000160149054906101000a900467ffffffffffffffff1667ffffffffffffffff16116106b4576040517f08c379a00000000000000000000000000000000000000000000000000000000081526004016106ab9061166d565b60405180910390fd5b60006001548260000160149054906101000a900467ffffffffffffffff1667ffffffffffffffff16426106e791906116bc565b6106f191906116f0565b905080856106ff9190611732565b9450428260000160146101000a81548167ffffffffffffffff021916908367ffffffffffffffff160217905550505050808060010191505061057d565b503373ffffffffffffffffffffffffffffffffffffffff167fd8138f8a3f377c5259ca548e70e4c2de94f129f5a11036a15b69513cba2b426a826040516107839190611265565b60405180910390a2505050565b610798610d62565b8060018190555050565b6107aa610d62565b6107b46000610de9565b565b7f000000000000000000000000000000000000000000000000000000000000000081565b60008060009054906101000a900473ffffffffffffffffffffffffffffffffffffffff16905090565b60015481565b60008073ffffffffffffffffffffffffffffffffffffffff166002600084815260200190815260200160002060000160009054906101000a900473ffffffffffffffffffffffffffffffffffffffff1673ffffffffffffffffffffffffffffffffffffffff1614159050919050565b600080600090505b838390508110156109e95760008484838181106108a05761089f611433565b5b9050602002013590506000600260008381526020019081526020016000206040518060400160405290816000820160009054906101000a900473ffffffffffffffffffffffffffffffffffffffff1673ffffffffffffffffffffffffffffffffffffffff1673ffffffffffffffffffffffffffffffffffffffff1681526020016000820160149054906101000a900467ffffffffffffffff1667ffffffffffffffff1667ffffffffffffffff168152505090508673ffffffffffffffffffffffffffffffffffffffff16816000015173ffffffffffffffffffffffffffffffffffffffff161480156109a057506000816020015167ffffffffffffffff16115b156109da57600154816020015167ffffffffffffffff16426109c291906116bc565b6109cc91906116f0565b846109d79190611732565b93505b50508080600101915050610880565b509392505050565b60026020528060005260406000206000915090508060000160009054906101000a900473ffffffffffffffffffffffffffffffffffffffff16908060000160149054906101000a900467ffffffffffffffff16905082565b60005b82829050811015610c87576000838383818110610a6c57610a6b611433565b5b9050602002013590506000600260008381526020019081526020016000206040518060400160405290816000820160009054906101000a900473ffffffffffffffffffffffffffffffffffffffff1673ffffffffffffffffffffffffffffffffffffffff1673ffffffffffffffffffffffffffffffffffffffff1681526020016000820160149054906101000a900467ffffffffffffffff1667ffffffffffffffff1667ffffffffffffffff168152505090503373ffffffffffffffffffffffffffffffffffffffff16816000015173ffffffffffffffffffffffffffffffffffffffff1614610b91576040517f08c379a0000000000000000000000000000000000000000000000000000000008152600401610b8890611601565b60405180910390fd5b60026000838152602001908152602001600020600080820160006101000a81549073ffffffffffffffffffffffffffffffffffffffff02191690556000820160146101000a81549067ffffffffffffffff021916905550507f000000000000000000000000000000000000000000000000000000000000000073ffffffffffffffffffffffffffffffffffffffff166342842e0e3033856040518463ffffffff1660e01b8152600401610c46939291906114df565b600060405180830381600087803b158015610c6057600080fd5b505af1158015610c74573d6000803e3d6000fd5b5050505050508080600101915050610a4c565b503373ffffffffffffffffffffffffffffffffffffffff167f20748b935fd9f21155c2e98cb2bd5df6fe86f21b193cebaae8d9ad7db0ba54168383604051610cd0929190611591565b60405180910390a25050565b610ce4610d62565b600073ffffffffffffffffffffffffffffffffffffffff168173ffffffffffffffffffffffffffffffffffffffff1603610d565760006040517f1e4fbdf7000000000000000000000000000000000000000000000000000000008152600401610d4d9190611336565b60405180910390fd5b610d5f81610de9565b50565b610d6a610ead565b73ffffffffffffffffffffffffffffffffffffffff16610d886107da565b73ffffffffffffffffffffffffffffffffffffffff1614610de757610dab610ead565b6040517f118cdaa7000000000000000000000000000000000000000000000000000000008152600401610dde9190611336565b60405180910390fd5b565b60008060009054906101000a900473ffffffffffffffffffffffffffffffffffffffff169050816000806101000a81548173ffffffffffffffffffffffffffffffffffffffff021916908373ffffffffffffffffffffffffffffffffffffffff1602179055508173ffffffffffffffffffffffffffffffffffffffff168173ffffffffffffffffffffffffffffffffffffffff167f8be0079c531659141344cd1fd0a4f28419497f9722a3daafe3b4186f6b6457e060405160405180910390a35050565b600033905090565b6000604051905090565b600080fd5b600080fd5b600080fd5b600080fd5b600080fd5b60008083601f840112610eee57610eed610ec9565b5b8235905067ffffffffffffffff811115610f0b57610f0a610ece565b5b602083019150836020820283011115610f2757610f26610ed3565b5b9250929050565b60008060208385031215610f4557610f44610ebf565b5b600083013567ffffffffffffffff811115610f6357610f62610ec4565b5b610f6f85828601610ed8565b92509250509250929050565b600073ffffffffffffffffffffffffffffffffffffffff82169050919050565b6000610fa682610f7b565b9050919050565b610fb681610f9b565b8114610fc157600080fd5b50565b600081359050610fd381610fad565b92915050565b6000819050919050565b610fec81610fd9565b8114610ff757600080fd5b50565b60008135905061100981610fe3565b92915050565b600080fd5b6000601f19601f8301169050919050565b7f4e487b7100000000000000000000000000000000000000000000000000000000600052604160045260246000fd5b61105d82611014565b810181811067ffffffffffffffff8211171561107c5761107b611025565b5b80604052505050565b600061108f610eb5565b905061109b8282611054565b919050565b600067ffffffffffffffff8211156110bb576110ba611025565b5b6110c482611014565b9050602081019050919050565b82818337600083830152505050565b60006110f36110ee846110a0565b611085565b90508281526020810184848401111561110f5761110e61100f565b5b61111a8482856110d1565b509392505050565b600082601f83011261113757611136610ec9565b5b81356111478482602086016110e0565b91505092915050565b6000806000806080858703121561116a57611169610ebf565b5b600061117887828801610fc4565b945050602061118987828801610fc4565b935050604061119a87828801610ffa565b925050606085013567ffffffffffffffff8111156111bb576111ba610ec4565b5b6111c787828801611122565b91505092959194509250565b60007fffffffff0000000000000000000000000000000000000000000000000000000082169050919050565b611208816111d3565b82525050565b600060208201905061122360008301846111ff565b92915050565b60006020828403121561123f5761123e610ebf565b5b600061124d84828501610fc4565b91505092915050565b61125f81610fd9565b82525050565b600060208201905061127a6000830184611256565b92915050565b60006020828403121561129657611295610ebf565b5b60006112a484828501610ffa565b91505092915050565b6000819050919050565b60006112d26112cd6112c884610f7b565b6112ad565b610f7b565b9050919050565b60006112e4826112b7565b9050919050565b60006112f6826112d9565b9050919050565b611306816112eb565b82525050565b600060208201905061132160008301846112fd565b92915050565b61133081610f9b565b82525050565b600060208201905061134b6000830184611327565b92915050565b60008115159050919050565b61136681611351565b82525050565b6000602082019050611381600083018461135d565b92915050565b6000806000604084860312156113a05761139f610ebf565b5b60006113ae86828701610fc4565b935050602084013567ffffffffffffffff8111156113cf576113ce610ec4565b5b6113db86828701610ed8565b92509250509250925092565b600067ffffffffffffffff82169050919050565b611404816113e7565b82525050565b600060408201905061141f6000830185611327565b61142c60208301846113fb565b9392505050565b7f4e487b7100000000000000000000000000000000000000000000000000000000600052603260045260246000fd5b600082825260208201905092915050565b7f616c7265616479207374616b6564000000000000000000000000000000000000600082015250565b60006114a9600e83611462565b91506114b482611473565b602082019050919050565b600060208201905081810360008301526114d88161149c565b9050919050565b60006060820190506114f46000830186611327565b6115016020830185611327565b61150e6040830184611256565b949350505050565b600082825260208201905092915050565b600080fd5b82818337505050565b60006115418385611516565b93507f07ffffffffffffffffffffffffffffffffffffffffffffffffffffffffffffff83111561157457611573611527565b5b60208302925061158583858461152c565b82840190509392505050565b600060208201905081810360008301526115ac818486611535565b90509392505050565b7f6e6f74206f776e65720000000000000000000000000000000000000000000000600082015250565b60006115eb600983611462565b91506115f6826115b5565b602082019050919050565b6000602082019050818103600083015261161a816115de565b9050919050565b7f6e6f74207374616b656400000000000000000000000000000000000000000000600082015250565b6000611657600a83611462565b915061166282611621565b602082019050919050565b600060208201905081810360008301526116868161164a565b9050919050565b7f4e487b7100000000000000000000000000000000000000000000000000000000600052601160045260246000fd5b60006116c782610fd9565b91506116d283610fd9565b92508282039050818111156116ea576116e961168d565b5b92915050565b60006116fb82610fd9565b915061170683610fd9565b925082820261171481610fd9565b9150828204841483151761172b5761172a61168d565b5b5092915050565b600061173d82610fd9565b915061174883610fd9565b92508282019050808211156117605761175f61168d565b5b9291505056fea2646970667358221220061d591091531c8b8df6af15975a43adb11db85524e51c8aa42f3a0ff6dcb81064736f6c63430008180033",
  "linkReferences": {},
  "deployedLinkReferences": {}
}