{
  "_format": "hh-sol-artifact-1",
  "contractName": "HeroNFT",
  "sourceName": "contracts/HeroNFT.sol",
  "abi": [
    {
      "inputs": [
        {
          "internalType": "string",
          "name": "_baseURI",
          "type": "string"
        }
      ],
      "stateMutability": "nonpayable",
      "type": "constructor"
    },
    {
      "inputs": [],
      "name": "ERC721EnumerableForbiddenBatchMint",
      "type": "error"
    },
    {
      "inputs": [
        {
          "internalType": "address",
          "name": "sender",
          "type": "address"
        },
        {
          "internalType": "uint256",
          "name": "tokenId",
          "type": "uint256"
        },
        {
          "internalType": "address",
          "name": "owner",
          "type": "address"
        }
      ],
      "name": "ERC721IncorrectOwner",
      "type": "error"
    },
    {
      "inputs": [
        {
          "internalType": "address",
          "name": "operator",
          "type": "address"
        },
        {
          "internalType": "uint256",
          "name": "tokenId",
          "type": "uint256"
        }
      ],
      "name": "ERC721InsufficientApproval",
      "type": "error"
    },
    {
      "inputs": [
        {
          "internalType": "address",
          "name": "approver",
          "type": "address"
        }
      ],
      "name": "ERC721InvalidApprover",
      "type": "error"
    },
    {
      "inputs": [
        {
          "internalType": "address",
          "name": "operator",
          "type": "address"
        }
      ],
      "name": "ERC721InvalidOperator",
      "type": "error"
    },
    {
      "inputs": [
        {
          "internalType": "address",
          "name": "owner",
          "type": "address"
        }
      ],
      "name": "ERC721InvalidOwner",
      "type": "error"
    },
    {
      "inputs": [
        {
          "internalType": "address",
          "name": "receiver",
          "type": "address"
        }
      ],
      "name": "ERC721InvalidReceiver",
      "type": "error"
    },
    {
      "inputs": [
        {
          "internalType": "address",
          "name": "sender",
          "type": "address"
        }
      ],
      "name": "ERC721InvalidSender",
      "type": "error"
    },
    {
      "inputs": [
        {
          "internalType": "uint256",
          "name": "tokenId",
          "type": "uint256"
        }
      ],
      "name": "ERC721NonexistentToken",
      "type": "error"
    },
    {
      "inputs": [
        {
          "internalType": "address",
          "name": "owner",
          "type": "address"
        },
        {
          "internalType": "uint256",
          "name": "index",
          "type": "uint256"
        }
      ],
      "name": "ERC721OutOfBoundsIndex",
      "type": "error"
    },
    {
      "inputs": [
        {
          "internalType": "address",
          "name": "owner",
          "type": "address"
        }
      ],
      "name": "OwnableInvalidOwner",
      "type": "error"
    },
    {
      "inputs": [
        {
          "internalType": "address",
          "name": "account",
          "type": "address"
        }
      ],
      "name": "OwnableUnauthorizedAccount",
      "type": "error"
    },
    {
      "anonymous": false,
      "inputs": [
        {
          "indexed": true,
          "internalType": "address",
          "name": "owner",
          "type": "address"
        },
        {
          "indexed": true,
          "internalType": "address",
          "name": "approved",
          "type": "address"
        },
        {
          "indexed": true,
          "internalType": "uint256",
          "name": "tokenId",
          "type": "uint256"
        }
      ],
      "name": "Approval",
      "type": "event"
    },
    {
      "anonymous": false,
      "inputs": [
        {
          "indexed": true,
          "internalType": "address",
          "name": "owner",
          "type": "address"
        },
        {
          "indexed": true,
          "internalType": "address",
          "name": "operator",
          "type": "address"
        },
        {
          "indexed": false,
          "internalType": "bool",
          "name": "approved",
          "type": "bool"
        }
      ],
      "name": "ApprovalForAll",
      "type": "event"
    },
    {
      "anonymous": false,
      "inputs": [
        {
          "indexed": true,
          "internalType": "uint256",
          "name": "tokenId",
          "type": "uint256"
        },
        {
          "indexed": false,
          "internalType": "uint256",
          "name": "newLevel",
          "type": "uint256"
        }
      ],
      "name": "Evolved",
      "type": "event"
    },
    {
      "anonymous": false,
      "inputs": [
        {
          "indexed": true,
          "internalType": "address",
          "name": "previousOwner",
          "type": "address"
        },
        {
          "indexed": true,
          "internalType": "address",
          "name": "newOwner",
          "type": "address"
        }
      ],
      "name": "OwnershipTransferred",
      "type": "event"
    },
    {
      "anonymous": false,
      "inputs": [
        {
          "indexed": true,
          "internalType": "address",
          "name": "from",
          "type": "address"
        },
        {
          "indexed": true,
          "internalType": "address",
          "name": "to",
          "type": "address"
        },
        {
          "indexed": true,
          "internalType": "uint256",
          "name": "tokenId",
          "type": "uint256"
        }
      ],
      "name": "Transfer",
      "type": "event"
    },
    {
      "inputs": [],
      "name": "MAX_PER_ADDRESS",
      "outputs": [
        {
          "internalType": "uint256",
          "name": "",
          "type": "uint256"
        }
      ],
      "stateMutability": "view",
      "type": "function"
    },
    {
      "inputs": [
        {
          "internalType": "address",
          "name": "to",
          "type": "address"
        },
        {
          "internalType": "uint256",
          "name": "tokenId",
          "type": "uint256"
        }
      ],
      "name": "approve",
      "outputs": [],
      "stateMutability": "nonpayable",
      "type": "function"
    },
    {
      "inputs": [
        {
          "internalType": "address",
          "name": "owner",
          "type": "address"
        }
      ],
      "name": "balanceOf",
      "outputs": [
        {
          "internalType": "uint256",
          "name": "",
          "type": "uint256"
        }
      ],
      "stateMutability": "view",
      "type": "function"
    },
    {
      "inputs": [],
      "name": "baseURI",
      "outputs": [
        {
          "internalType": "string",
          "name": "",
          "type": "string"
        }
      ],
      "stateMutability": "view",
      "type": "function"
    },
    {
      "inputs": [
        {
          "internalType": "uint256",
          "name": "tokenId",
          "type": "uint256"
        }
      ],
      "name": "evolve",
      "outputs": [],
      "stateMutability": "nonpayable",
      "type": "function"
    },
    {
      "inputs": [
        {
          "internalType": "uint256",
          "name": "tokenId",
          "type": "uint256"
        }
      ],
      "name": "getApproved",
      "outputs": [
        {
          "internalType": "address",
          "name": "",
          "type": "address"
        }
      ],
      "stateMutability": "view",
      "type": "function"
    },
    {
      "inputs": [
        {
          "internalType": "address",
          "name": "owner",
          "type": "address"
        },
        {
          "internalType": "address",
          "name": "operator",
          "type": "address"
        }
      ],
      "name": "isApprovedForAll",
      "outputs": [
        {
          "internalType": "bool",
          "name": "",
          "type": "bool"
        }
      ],
      "stateMutability": "view",
      "type": "function"
    },
    {
      "inputs": [
        {
          "internalType": "uint256",
          "name": "",
          "type": "uint256"
        }
      ],
      "name": "levelOf",
      "outputs": [
        {
          "internalType": "uint256",
          "name": "",
          "type": "uint256"
        }
      ],
      "stateMutability": "view",
      "type": "function"
    },
    {
      "inputs": [
        {
          "internalType": "address",
          "name": "to",
          "type": "address"
        },
        {
          "internalType": "uint256",
          "name": "qty",
          "type": "uint256"
        }
      ],
      "name": "mint",
      "outputs": [],
      "stateMutability": "nonpayable",
      "type": "function"
    },
    {
      "inputs": [
        {
          "internalType": "uint256",
          "name": "qty",
          "type": "uint256"
        }
      ],
      "name": "mintSelf",
      "outputs": [],
      "stateMutability": "nonpayable",
      "type": "function"
    },
    {
      "inputs": [
        {
          "internalType": "address",
          "name": "",
          "type": "address"
        }
      ],
      "name": "mintedBy",
      "outputs": [
        {
          "internalType": "uint256",
          "name": "",
          "type": "uint256"
        }
      ],
      "stateMutability": "view",
      "type": "function"
    },
    {
      "inputs": [],
      "name": "name",
      "outputs": [
        {
          "internalType": "string",
          "name": "",
          "type": "string"
        }
      ],
      "stateMutability": "view",
      "type": "function"
    },
    {
      "inputs": [],
      "name": "nextId",
      "outputs": [
        {
          "internalType": "uint256",
          "name": "",
          "type": "uint256"
        }
      ],
      "stateMutability": "view",
      "type": "function"
    },
    {
      "inputs": [],
      "name": "owner",
      "outputs": [
        {
          "internalType": "address",
          "name": "",
          "type": "address"
        }
      ],
      "stateMutability": "view",
      "type": "function"
    },
    {
      "inputs": [
        {
          "internalType": "uint256",
          "name": "tokenId",
          "type": "uint256"
        }
      ],
      "name": "ownerOf",
      "outputs": [
        {
          "internalType": "address",
          "name": "",
          "type": "address"
        }
      ],
      "stateMutability": "view",
      "type": "function"
    },
    {
      "inputs": [],
      "name": "renounceOwnership",
      "outputs": [],
      "stateMutability": "nonpayable",
      "type": "function"
    },
    {
      "inputs": [
        {
          "internalType": "address",
          "name": "from",
          "type": "address"
        },
        {
          "internalType": "address",
          "name": "to",
          "type": "address"
        },
        {
          "internalType": "uint256",
          "name": "tokenId",
          "type": "uint256"
        }
      ],
      "name": "safeTransferFrom",
      "outputs": [],
      "stateMutability": "nonpayable",
      "type": "function"
    },
    {
      "inputs": [
        {
          "internalType": "address",
          "name": "from",
          "type": "address"
        },
        {
          "internalType": "address",
          "name": "to",
          "type": "address"
        },
        {
          "internalType": "uint256",
          "name": "tokenId",
          "type": "uint256"
        },
        {
          "internalType": "bytes",
          "name": "data",
          "type": "bytes"
        }
      ],
      "name": "safeTransferFrom",
      "outputs": [],
      "stateMutability": "nonpayable",
      "type": "function"
    },
    {
      "inputs": [
        {
          "internalType": "address",
          "name": "operator",
          "type": "address"
        },
        {
          "internalType": "bool",
          "name": "approved",
          "type": "bool"
        }
      ],
      "name": "setApprovalForAll",
      "outputs": [],
      "stateMutability": "nonpayable",
      "type": "function"
    },
    {
      "inputs": [
        {
          "internalType": "string",
          "name": "_baseURIValue",
          "type": "string"
        }
      ],
      "name": "setBaseURI",
      "outputs": [],
      "stateMutability": "nonpayable",
      "type": "function"
    },
    {
      "inputs": [
        {
          "internalType": "bytes4",
          "name": "interfaceId",
          "type": "bytes4"
        }
      ],
      "name": "supportsInterface",
      "outputs": [
        {
          "internalType": "bool",
          "name": "",
          "type": "bool"
        }
      ],
      "stateMutability": "view",
      "type": "function"
    },
    {
      "inputs": [],
      "name": "symbol",
      "outputs": [
        {
          "internalType": "string",
          "name": "",
          "type": "string"
        }
      ],
      "stateMutability": "view",
      "type": "function"
    },
    {
      "inputs": [
        {
          "internalType": "uint256",
          "name": "index",
          "type": "uint256"
        }
      ],
      "name": "tokenByIndex",
      "outputs": [
        {
          "internalType": "uint256",
          "name": "",
          "type": "uint256"
        }
      ],
      "stateMutability": "view",
      "type": "function"
    },
    {
      "inputs": [
        {
          "internalType": "address",
          "name": "owner",
          "type": "address"
        },
        {
          "internalType": "uint256",
          "name": "index",
          "type": "uint256"
        }
      ],
      "name": "tokenOfOwnerByIndex",
      "outputs": [
        {
          "internalType": "uint256",
          "name": "",
          "type": "uint256"
        }
      ],
      "stateMutability": "view",
      "type": "function"
    },
    {
      "inputs": [
        {
          "internalType": "uint256",
          "name": "tokenId",
          "type": "uint256"
        }
      ],
      "name": "tokenURI",
      "outputs": [
        {
          "internalType": "string",
          "name": "",
          "type": "string"
        }
      ],
      "stateMutability": "view",
      "type": "function"
    },
    {
      "inputs": [],
      "name": "totalSupply",
      "outputs": [
        {
          "internalType": "uint256",
          "name": "",
          "type": "uint256"
        }
      ],
      "stateMutability": "view",
      "type": "function"
    },
    {
      "inputs": [
        {
          "internalType": "address",
          "name": "from",
          "type": "address"
        },
        {
          "internalType": "address",
          "name": "to",
          "type": "address"
        },
        {
          "internalType": "uint256",
          "name": "tokenId",
          "type": "uint256"
        }
      ],
      "name": "transferFrom",
      "outputs": [],
      "stateMutability": "nonpayable",
      "type": "function"
    },
    {
      "inputs": [
        {
          "internalType": "address",
          "name": "newOwner",
          "type": "address"
        }
      ],
      "name": "transferOwnership",
      "outputs": [],
      "stateMutability": "nonpayable",
      "type": "function"
    }
  ],
  "bytecode": "0x60806040526001600b553480156200001657600080fd5b506040516200396c3803806200396c83398181016040528101906200003c9190620003c8565b336040518060400160405280600b81526020017f41657468656c204865726f0000000000000000000000000000000000000000008152506040518060400160405280600481526020017f4845524f000000000000000000000000000000000000000000000000000000008152508160009081620000ba919062000664565b508060019081620000cc919062000664565b505050600073ffffffffffffffffffffffffffffffffffffffff168173ffffffffffffffffffffffffffffffffffffffff1603620001445760006040517f1e4fbdf70000000000000000000000000000000000000000000000000000000081526004016200013b919062000790565b60405180910390fd5b62000155816200016f60201b60201c565b5080600d908162000167919062000664565b5050620007ad565b6000600a60009054906101000a900473ffffffffffffffffffffffffffffffffffffffff16905081600a60006101000a81548173ffffffffffffffffffffffffffffffffffffffff021916908373ffffffffffffffffffffffffffffffffffffffff1602179055508173ffffffffffffffffffffffffffffffffffffffff168173ffffffffffffffffffffffffffffffffffffffff167f8be0079c531659141344cd1fd0a4f28419497f9722a3daafe3b4186f6b6457e060405160405180910390a35050565b6000604051905090565b600080fd5b600080fd5b600080fd5b600080fd5b6000601f19601f8301169050919050565b7f4e487b7100000000000000000000000000000000000000000000000000000000600052604160045260246000fd5b6200029e8262000253565b810181811067ffffffffffffffff82111715620002c057620002bf62000264565b5b80604052505050565b6000620002d562000235565b9050620002e3828262000293565b919050565b600067ffffffffffffffff82111562000306576200030562000264565b5b620003118262000253565b9050602081019050919050565b60005b838110156200033e57808201518184015260208101905062000321565b60008484015250505050565b6000620003616200035b84620002e8565b620002c9565b90508281526020810184848401111562000380576200037f6200024e565b5b6200038d8482856200031e565b509392505050565b600082601f830112620003ad57620003ac62000249565b5b8151620003bf8482602086016200034a565b91505092915050565b600060208284031215620003e157620003e06200023f565b5b600082015167ffffffffffffffff81111562000402576200040162000244565b5b620004108482850162000395565b91505092915050565b600081519050919050565b7f4e487b7100000000000000000000000000000000000000000000000000000000600052602260045260246000fd5b600060028204905060018216806200046c57607f821691505b60208210810362000482576200048162000424565b5b50919050565b60008190508160005260206000209050919050565b60006020601f8301049050919050565b600082821b905092915050565b600060088302620004ec7fffffffffffffffffffffffffffffffffffffffffffffffffffffffffffffffff82620004ad565b620004f88683620004ad565b95508019841693508086168417925050509392505050565b6000819050919050565b6000819050919050565b6000620005456200053f620005398462000510565b6200051a565b62000510565b9050919050565b6000819050919050565b620005618362000524565b6200057962000570826200054c565b848454620004ba565b825550505050565b600090565b6200059062000581565b6200059d81848462000556565b505050565b5b81811015620005c557620005b960008262000586565b600181019050620005a3565b5050565b601f8211156200061457620005de8162000488565b620005e9846200049d565b81016020851015620005f9578190505b6200061162000608856200049d565b830182620005a2565b50505b505050565b600082821c905092915050565b6000620006396000198460080262000619565b1980831691505092915050565b600062000654838362000626565b9150826002028217905092915050565b6200066f8262000419565b67ffffffffffffffff8111156200068b576200068a62000264565b5b62000697825462000453565b620006a4828285620005c9565b600060209050601f831160018114620006dc5760008415620006c7578287015190505b620006d3858262000646565b86555062000743565b601f198416620006ec8662000488565b60005b828110156200071657848901518255600182019150602085019450602081019050620006ef565b8683101562000736578489015162000732601f89168262000626565b8355505b6001600288020188555050505b505050505050565b600073ffffffffffffffffffffffffffffffffffffffff82169050919050565b600062000778826200074b565b9050919050565b6200078a816200076b565b82525050565b6000602082019050620007a760008301846200077f565b92915050565b6131af80620007bd6000396000f3fe608060405234801561001057600080fd5b50600436106101c45760003560e01c80636352211e116100f957806395d89b4111610097578063c87b56dd11610071578063c87b56dd14610505578063e985e9c514610535578063f119f56714610565578063f2fde38b14610581576101c4565b806395d89b41146104af578063a22cb465146104cd578063b88d4fde146104e9576101c4565b806370a08231116100d357806370a082311461043b578063715018a61461046b578063720eacad146104755780638da5cb5b14610491576101c4565b80636352211e146103bd5780636c0360eb146103ed5780636d5e30321461040b576101c4565b80632f745c591161016657806342842e0e1161014057806342842e0e146103375780634f6ccce71461035357806355f804b31461038357806361b8ce8c1461039f576101c4565b80632f745c59146102bb5780633cef28d2146102eb57806340c10f191461031b576101c4565b8063095ea7b3116101a2578063095ea7b3146102475780630aaef2851461026357806318160ddd1461028157806323b872dd1461029f576101c4565b806301ffc9a7146101c957806306fdde03146101f9578063081812fc14610217575b600080fd5b6101e360048036038101906101de9190612444565b61059d565b6040516101f0919061248c565b60405180910390f35b610201610617565b60405161020e9190612537565b60405180910390f35b610231600480360381019061022c919061258f565b6106a9565b60405161023e91906125fd565b60405180910390f35b610261600480360381019061025c9190612644565b6106c5565b005b61026b6106db565b6040516102789190612693565b60405180910390f35b6102896106e0565b6040516102969190612693565b60405180910390f35b6102b960048036038101906102b491906126ae565b6106ed565b005b6102d560048036038101906102d09190612644565b6107ef565b6040516102e29190612693565b60405180910390f35b61030560048036038101906103009190612701565b610898565b6040516103129190612693565b60405180910390f35b61033560048036038101906103309190612644565b6108b0565b005b610351600480360381019061034c91906126ae565b6108f5565b005b61036d6004803603810190610368919061258f565b610915565b60405161037a9190612693565b60405180910390f35b61039d60048036038101906103989190612793565b61098b565b005b6103a76109a9565b6040516103b49190612693565b60405180910390f35b6103d760048036038101906103d2919061258f565b6109af565b6040516103e491906125fd565b60405180910390f35b6103f56109c1565b6040516104029190612537565b60405180910390f35b6104256004803603810190610420919061258f565b610a4f565b6040516104329190612693565b60405180910390f35b61045560048036038101906104509190612701565b610a67565b6040516104629190612693565b60405180910390f35b610473610b21565b005b61048f600480360381019061048a919061258f565b610b35565b005b610499610c98565b6040516104a691906125fd565b60405180910390f35b6104b7610cc2565b6040516104c49190612537565b60405180910390f35b6104e760048036038101906104e2919061280c565b610d54565b005b61050360048036038101906104fe919061297c565b610d6a565b005b61051f600480360381019061051a919061258f565b610d8f565b60405161052c9190612537565b60405180910390f35b61054f600480360381019061054a91906129ff565b610df8565b60405161055c919061248c565b60405180910390f35b61057f600480360381019061057a919061258f565b610e8c565b005b61059b60048036038101906105969190612701565b610f7e565b005b60007f780e9d63000000000000000000000000000000000000000000000000000000007bffffffffffffffffffffffffffffffffffffffffffffffffffffffff1916827bffffffffffffffffffffffffffffffffffffffffffffffffffffffff19161480610610575061060f82611004565b5b9050919050565b60606000805461062690612a6e565b80601f016020809104026020016040519081016040528092919081815260200182805461065290612a6e565b801561069f5780601f106106745761010080835404028352916020019161069f565b820191906000526020600020905b81548152906001019060200180831161068257829003601f168201915b5050505050905090565b60006106b4826110e6565b506106be8261116e565b9050919050565b6106d782826106d26111ab565b6111b3565b5050565b600581565b6000600880549050905090565b600073ffffffffffffffffffffffffffffffffffffffff168273ffffffffffffffffffffffffffffffffffffffff160361075f5760006040517f64a0ae9200000000000000000000000000000000000000000000000000000000815260040161075691906125fd565b60405180910390fd5b6000610773838361076e6111ab565b6111c5565b90508373ffffffffffffffffffffffffffffffffffffffff168173ffffffffffffffffffffffffffffffffffffffff16146107e9578382826040517f64283d7b0000000000000000000000000000000000000000000000000000000081526004016107e093929190612a9f565b60405180910390fd5b50505050565b60006107fa83610a67565b821061083f5782826040517fa57d13dc000000000000000000000000000000000000000000000000000000008152600401610836929190612ad6565b60405180910390fd5b600660008473ffffffffffffffffffffffffffffffffffffffff1673ffffffffffffffffffffffffffffffffffffffff168152602001908152602001600020600083815260200190815260200160002054905092915050565b600c6020528060005260406000206000915090505481565b6108b86112e2565b60005b818110156108f0576108e383600b60008154809291906108da90612b2e565b91905055611369565b80806001019150506108bb565b505050565b61091083838360405180602001604052806000815250610d6a565b505050565b600061091f6106e0565b8210610965576000826040517fa57d13dc00000000000000000000000000000000000000000000000000000000815260040161095c929190612ad6565b60405180910390fd5b6008828154811061097957610978612b76565b5b90600052602060002001549050919050565b6109936112e2565b8181600d91826109a4929190612d5c565b505050565b600b5481565b60006109ba826110e6565b9050919050565b600d80546109ce90612a6e565b80601f01602080910402602001604051908101604052809291908181526020018280546109fa90612a6e565b8015610a475780601f10610a1c57610100808354040283529160200191610a47565b820191906000526020600020905b815481529060010190602001808311610a2a57829003601f168201915b505050505081565b600e6020528060005260406000206000915090505481565b60008073ffffffffffffffffffffffffffffffffffffffff168273ffffffffffffffffffffffffffffffffffffffff1603610ada5760006040517f89c62b64000000000000000000000000000000000000000000000000000000008152600401610ad191906125fd565b60405180910390fd5b600360008373ffffffffffffffffffffffffffffffffffffffff1673ffffffffffffffffffffffffffffffffffffffff168152602001908152602001600020549050919050565b610b296112e2565b610b336000611387565b565b60008111610b78576040517f08c379a0000000000000000000000000000000000000000000000000000000008152600401610b6f90612e78565b60405180910390fd5b600581600c60003373ffffffffffffffffffffffffffffffffffffffff1673ffffffffffffffffffffffffffffffffffffffff16815260200190815260200160002054610bc59190612e98565b1115610c06576040517f08c379a0000000000000000000000000000000000000000000000000000000008152600401610bfd90612f18565b60405180910390fd5b80600c60003373ffffffffffffffffffffffffffffffffffffffff1673ffffffffffffffffffffffffffffffffffffffff1681526020019081526020016000206000828254610c559190612e98565b9250508190555060005b81811015610c9457610c8733600b6000815480929190610c7e90612b2e565b91905055611369565b8080600101915050610c5f565b5050565b6000600a60009054906101000a900473ffffffffffffffffffffffffffffffffffffffff16905090565b606060018054610cd190612a6e565b80601f0160208091040260200160405190810160405280929190818152602001828054610cfd90612a6e565b8015610d4a5780601f10610d1f57610100808354040283529160200191610d4a565b820191906000526020600020905b815481529060010190602001808311610d2d57829003601f168201915b5050505050905090565b610d66610d5f6111ab565b838361144d565b5050565b610d758484846106ed565b610d89610d806111ab565b858585856115bc565b50505050565b6060610d9a826110e6565b506000610da561176d565b90506000815111610dc55760405180602001604052806000815250610df0565b80610dcf846117ff565b604051602001610de0929190612f74565b6040516020818303038152906040525b915050919050565b6000600560008473ffffffffffffffffffffffffffffffffffffffff1673ffffffffffffffffffffffffffffffffffffffff16815260200190815260200160002060008373ffffffffffffffffffffffffffffffffffffffff1673ffffffffffffffffffffffffffffffffffffffff16815260200190815260200160002060009054906101000a900460ff16905092915050565b3373ffffffffffffffffffffffffffffffffffffffff16610eac826109af565b73ffffffffffffffffffffffffffffffffffffffff1614610f02576040517f08c379a0000000000000000000000000000000000000000000000000000000008152600401610ef990612fe4565b60405180910390fd5b6001600e60008381526020019081526020016000205401600e600083815260200190815260200160002081905550807f831683a0a2794a398b7d69c2b83ba3c01f936a631165543a1a686a39e3164886600e600084815260200190815260200160002054604051610f739190612693565b60405180910390a250565b610f866112e2565b600073ffffffffffffffffffffffffffffffffffffffff168173ffffffffffffffffffffffffffffffffffffffff1603610ff85760006040517f1e4fbdf7000000000000000000000000000000000000000000000000000000008152600401610fef91906125fd565b60405180910390fd5b61100181611387565b50565b60007f80ac58cd000000000000000000000000000000000000000000000000000000007bffffffffffffffffffffffffffffffffffffffffffffffffffffffff1916827bffffffffffffffffffffffffffffffffffffffffffffffffffffffff191614806110cf57507f5b5e139f000000000000000000000000000000000000000000000000000000007bffffffffffffffffffffffffffffffffffffffffffffffffffffffff1916827bffffffffffffffffffffffffffffffffffffffffffffffffffffffff1916145b806110df57506110de826118cd565b5b9050919050565b6000806110f283611937565b9050600073ffffffffffffffffffffffffffffffffffffffff168173ffffffffffffffffffffffffffffffffffffffff160361116557826040517f7e27328900000000000000000000000000000000000000000000000000000000815260040161115c9190612693565b60405180910390fd5b80915050919050565b60006004600083815260200190815260200160002060009054906101000a900473ffffffffffffffffffffffffffffffffffffffff169050919050565b600033905090565b6111c08383836001611974565b505050565b6000806111d3858585611b39565b9050600073ffffffffffffffffffffffffffffffffffffffff168173ffffffffffffffffffffffffffffffffffffffff16036112175761121284611d53565b611256565b8473ffffffffffffffffffffffffffffffffffffffff168173ffffffffffffffffffffffffffffffffffffffff1614611255576112548185611d9c565b5b5b600073ffffffffffffffffffffffffffffffffffffffff168573ffffffffffffffffffffffffffffffffffffffff16036112985761129384611e87565b6112d7565b8473ffffffffffffffffffffffffffffffffffffffff168173ffffffffffffffffffffffffffffffffffffffff16146112d6576112d58585611f58565b5b5b809150509392505050565b6112ea6111ab565b73ffffffffffffffffffffffffffffffffffffffff16611308610c98565b73ffffffffffffffffffffffffffffffffffffffff16146113675761132b6111ab565b6040517f118cdaa700000000000000000000000000000000000000000000000000000000815260040161135e91906125fd565b60405180910390fd5b565b611383828260405180602001604052806000815250611fe3565b5050565b6000600a60009054906101000a900473ffffffffffffffffffffffffffffffffffffffff16905081600a60006101000a81548173ffffffffffffffffffffffffffffffffffffffff021916908373ffffffffffffffffffffffffffffffffffffffff1602179055508173ffffffffffffffffffffffffffffffffffffffff168173ffffffffffffffffffffffffffffffffffffffff167f8be0079c531659141344cd1fd0a4f28419497f9722a3daafe3b4186f6b6457e060405160405180910390a35050565b600073ffffffffffffffffffffffffffffffffffffffff168273ffffffffffffffffffffffffffffffffffffffff16036114be57816040517f5b08ba180000000000000000000000000000000000000000000000000000000081526004016114b591906125fd565b60405180910390fd5b80600560008573ffffffffffffffffffffffffffffffffffffffff1673ffffffffffffffffffffffffffffffffffffffff16815260200190815260200160002060008473ffffffffffffffffffffffffffffffffffffffff1673ffffffffffffffffffffffffffffffffffffffff16815260200190815260200160002060006101000a81548160ff0219169083151502179055508173ffffffffffffffffffffffffffffffffffffffff168373ffffffffffffffffffffffffffffffffffffffff167f17307eab39ab6107e8899845ad3d59bd9653f200f220920489ca2b5937696c31836040516115af919061248c565b60405180910390a3505050565b60008373ffffffffffffffffffffffffffffffffffffffff163b1115611766578273ffffffffffffffffffffffffffffffffffffffff1663150b7a02868685856040518563ffffffff1660e01b815260040161161b9493929190613059565b6020604051808303816000875af192505050801561165757506040513d601f19601f8201168201806040525081019061165491906130ba565b60015b6116db573d8060008114611687576040519150601f19603f3d011682016040523d82523d6000602084013e61168c565b606091505b5060008151036116d357836040517f64a0ae920000000000000000000000000000000000000000000000000000000081526004016116ca91906125fd565b60405180910390fd5b805160208201fd5b63150b7a0260e01b7bffffffffffffffffffffffffffffffffffffffffffffffffffffffff1916817bffffffffffffffffffffffffffffffffffffffffffffffffffffffff19161461176457836040517f64a0ae9200000000000000000000000000000000000000000000000000000000815260040161175b91906125fd565b60405180910390fd5b505b5050505050565b6060600d805461177c90612a6e565b80601f01602080910402602001604051908101604052809291908181526020018280546117a890612a6e565b80156117f55780601f106117ca576101008083540402835291602001916117f5565b820191906000526020600020905b8154815290600101906020018083116117d857829003601f168201915b5050505050905090565b60606000600161180e84612007565b01905060008167ffffffffffffffff81111561182d5761182c612851565b5b6040519080825280601f01601f19166020018201604052801561185f5781602001600182028036833780820191505090505b509050600082602083010190505b6001156118c2578080600190039150507f3031323334353637383961626364656600000000000000000000000000000000600a86061a8153600a85816118b6576118b56130e7565b5b0494506000850361186d575b819350505050919050565b60007f01ffc9a7000000000000000000000000000000000000000000000000000000007bffffffffffffffffffffffffffffffffffffffffffffffffffffffff1916827bffffffffffffffffffffffffffffffffffffffffffffffffffffffff1916149050919050565b60006002600083815260200190815260200160002060009054906101000a900473ffffffffffffffffffffffffffffffffffffffff169050919050565b80806119ad5750600073ffffffffffffffffffffffffffffffffffffffff168273ffffffffffffffffffffffffffffffffffffffff1614155b15611ae15760006119bd846110e6565b9050600073ffffffffffffffffffffffffffffffffffffffff168373ffffffffffffffffffffffffffffffffffffffff1614158015611a2857508273ffffffffffffffffffffffffffffffffffffffff168173ffffffffffffffffffffffffffffffffffffffff1614155b8015611a3b5750611a398184610df8565b155b15611a7d57826040517fa9fbf51f000000000000000000000000000000000000000000000000000000008152600401611a7491906125fd565b60405180910390fd5b8115611adf57838573ffffffffffffffffffffffffffffffffffffffff168273ffffffffffffffffffffffffffffffffffffffff167f8c5be1e5ebec7d5bd14f71427d1e84f3dd0314c0f7b2291e5b200ac8c7c3b92560405160405180910390a45b505b836004600085815260200190815260200160002060006101000a81548173ffffffffffffffffffffffffffffffffffffffff021916908373ffffffffffffffffffffffffffffffffffffffff16021790555050505050565b600080611b4584611937565b9050600073ffffffffffffffffffffffffffffffffffffffff168373ffffffffffffffffffffffffffffffffffffffff1614611b8757611b8681848661215a565b5b600073ffffffffffffffffffffffffffffffffffffffff168173ffffffffffffffffffffffffffffffffffffffff1614611c1857611bc9600085600080611974565b6001600360008373ffffffffffffffffffffffffffffffffffffffff1673ffffffffffffffffffffffffffffffffffffffff168152602001908152602001600020600082825403925050819055505b600073ffffffffffffffffffffffffffffffffffffffff168573ffffffffffffffffffffffffffffffffffffffff1614611c9b576001600360008773ffffffffffffffffffffffffffffffffffffffff1673ffffffffffffffffffffffffffffffffffffffff168152602001908152602001600020600082825401925050819055505b846002600086815260200190815260200160002060006101000a81548173ffffffffffffffffffffffffffffffffffffffff021916908373ffffffffffffffffffffffffffffffffffffffff160217905550838573ffffffffffffffffffffffffffffffffffffffff168273ffffffffffffffffffffffffffffffffffffffff167fddf252ad1be2c89b69c2b068fc378daa952ba7f163c4a11628f55a4df523b3ef60405160405180910390a4809150509392505050565b6008805490506009600083815260200190815260200160002081905550600881908060018154018082558091505060019003906000526020600020016000909190919091505550565b6000611da783610a67565b90506000600760008481526020019081526020016000205490506000600660008673ffffffffffffffffffffffffffffffffffffffff1673ffffffffffffffffffffffffffffffffffffffff1681526020019081526020016000209050828214611e535760008160008581526020019081526020016000205490508082600085815260200190815260200160002081905550826007600083815260200190815260200160002081905550505b6007600085815260200190815260200160002060009055806000848152602001908152602001600020600090555050505050565b60006001600880549050611e9b9190613116565b9050600060096000848152602001908152602001600020549050600060088381548110611ecb57611eca612b76565b5b906000526020600020015490508060088381548110611eed57611eec612b76565b5b906000526020600020018190555081600960008381526020019081526020016000208190555060096000858152602001908152602001600020600090556008805480611f3c57611f3b61314a565b5b6001900381819060005260206000200160009055905550505050565b60006001611f6584610a67565b611f6f9190613116565b905081600660008573ffffffffffffffffffffffffffffffffffffffff1673ffffffffffffffffffffffffffffffffffffffff168152602001908152602001600020600083815260200190815260200160002081905550806007600084815260200190815260200160002081905550505050565b611fed838361221e565b612002611ff86111ab565b60008585856115bc565b505050565b600080600090507a184f03e93ff9f4daa797ed6e38ed64bf6a1f0100000000000000008310612065577a184f03e93ff9f4daa797ed6e38ed64bf6a1f010000000000000000838161205b5761205a6130e7565b5b0492506040810190505b6d04ee2d6d415b85acef810000000083106120a2576d04ee2d6d415b85acef81000000008381612098576120976130e7565b5b0492506020810190505b662386f26fc1000083106120d157662386f26fc1000083816120c7576120c66130e7565b5b0492506010810190505b6305f5e10083106120fa576305f5e10083816120f0576120ef6130e7565b5b0492506008810190505b612710831061211f576127108381612115576121146130e7565b5b0492506004810190505b606483106121425760648381612138576121376130e7565b5b0492506002810190505b600a8310612151576001810190505b80915050919050565b612165838383612317565b61221957600073ffffffffffffffffffffffffffffffffffffffff168373ffffffffffffffffffffffffffffffffffffffff16036121da57806040517f7e2732890000000000000000000000000000000000000000000000000000000081526004016121d19190612693565b60405180910390fd5b81816040517f177e802f000000000000000000000000000000000000000000000000000000008152600401612210929190612ad6565b60405180910390fd5b505050565b600073ffffffffffffffffffffffffffffffffffffffff168273ffffffffffffffffffffffffffffffffffffffff16036122905760006040517f64a0ae9200000000000000000000000000000000000000000000000000000000815260040161228791906125fd565b60405180910390fd5b600061229e838360006111c5565b9050600073ffffffffffffffffffffffffffffffffffffffff168173ffffffffffffffffffffffffffffffffffffffff16146123125760006040517f73c6ac6e00000000000000000000000000000000000000000000000000000000815260040161230991906125fd565b60405180910390fd5b505050565b60008073ffffffffffffffffffffffffffffffffffffffff168373ffffffffffffffffffffffffffffffffffffffff16141580156123cf57508273ffffffffffffffffffffffffffffffffffffffff168473ffffffffffffffffffffffffffffffffffffffff161480612390575061238f8484610df8565b5b806123ce57508273ffffffffffffffffffffffffffffffffffffffff166123b68361116e565b73ffffffffffffffffffffffffffffffffffffffff16145b5b90509392505050565b6000604051905090565b600080fd5b600080fd5b60007fffffffff0000000000000000000000000000000000000000000000000000000082169050919050565b612421816123ec565b811461242c57600080fd5b50565b60008135905061243e81612418565b92915050565b60006020828403121561245a576124596123e2565b5b60006124688482850161242f565b91505092915050565b60008115159050919050565b61248681612471565b82525050565b60006020820190506124a1600083018461247d565b92915050565b600081519050919050565b600082825260208201905092915050565b60005b838110156124e15780820151818401526020810190506124c6565b60008484015250505050565b6000601f19601f8301169050919050565b6000612509826124a7565b61251381856124b2565b93506125238185602086016124c3565b61252c816124ed565b840191505092915050565b6000602082019050818103600083015261255181846124fe565b905092915050565b6000819050919050565b61256c81612559565b811461257757600080fd5b50565b60008135905061258981612563565b92915050565b6000602082840312156125a5576125a46123e2565b5b60006125b38482850161257a565b91505092915050565b600073ffffffffffffffffffffffffffffffffffffffff82169050919050565b60006125e7826125bc565b9050919050565b6125f7816125dc565b82525050565b600060208201905061261260008301846125ee565b92915050565b612621816125dc565b811461262c57600080fd5b50565b60008135905061263e81612618565b92915050565b6000806040838503121561265b5761265a6123e2565b5b60006126698582860161262f565b925050602061267a8582860161257a565b9150509250929050565b61268d81612559565b82525050565b60006020820190506126a86000830184612684565b92915050565b6000806000606084860312156126c7576126c66123e2565b5b60006126d58682870161262f565b93505060206126e68682870161262f565b92505060406126f78682870161257a565b9150509250925092565b600060208284031215612717576127166123e2565b5b60006127258482850161262f565b91505092915050565b600080fd5b600080fd5b600080fd5b60008083601f8401126127535761275261272e565b5b8235905067ffffffffffffffff8111156127705761276f612733565b5b60208301915083600182028301111561278c5761278b612738565b5b9250929050565b600080602083850312156127aa576127a96123e2565b5b600083013567ffffffffffffffff8111156127c8576127c76123e7565b5b6127d48582860161273d565b92509250509250929050565b6127e981612471565b81146127f457600080fd5b50565b600081359050612806816127e0565b92915050565b60008060408385031215612823576128226123e2565b5b60006128318582860161262f565b9250506020612842858286016127f7565b9150509250929050565b600080fd5b7f4e487b7100000000000000000000000000000000000000000000000000000000600052604160045260246000fd5b612889826124ed565b810181811067ffffffffffffffff821117156128a8576128a7612851565b5b80604052505050565b60006128bb6123d8565b90506128c78282612880565b919050565b600067ffffffffffffffff8211156128e7576128e6612851565b5b6128f0826124ed565b9050602081019050919050565b82818337600083830152505050565b600061291f61291a846128cc565b6128b1565b90508281526020810184848401111561293b5761293a61284c565b5b6129468482856128fd565b509392505050565b600082601f8301126129635761296261272e565b5b813561297384826020860161290c565b91505092915050565b60008060008060808587031215612996576129956123e2565b5b60006129a48782880161262f565b94505060206129b58782880161262f565b93505060406129c68782880161257a565b925050606085013567ffffffffffffffff8111156129e7576129e66123e7565b5b6129f38782880161294e565b91505092959194509250565b60008060408385031215612a1657612a156123e2565b5b6000612a248582860161262f565b9250506020612a358582860161262f565b9150509250929050565b7f4e487b7100000000000000000000000000000000000000000000000000000000600052602260045260246000fd5b60006002820490506001821680612a8657607f821691505b602082108103612a9957612a98612a3f565b5b50919050565b6000606082019050612ab460008301866125ee565b612ac16020830185612684565b612ace60408301846125ee565b949350505050565b6000604082019050612aeb60008301856125ee565b612af86020830184612684565b9392505050565b7f4e487b7100000000000000000000000000000000000000000000000000000000600052601160045260246000fd5b6000612b3982612559565b91507fffffffffffffffffffffffffffffffffffffffffffffffffffffffffffffffff8203612b6b57612b6a612aff565b5b600182019050919050565b7f4e487b7100000000000000000000000000000000000000000000000000000000600052603260045260246000fd5b600082905092915050565b60008190508160005260206000209050919050565b60006020601f8301049050919050565b600082821b905092915050565b600060088302612c127fffffffffffffffffffffffffffffffffffffffffffffffffffffffffffffffff82612bd5565b612c1c8683612bd5565b95508019841693508086168417925050509392505050565b6000819050919050565b6000612c59612c54612c4f84612559565b612c34565b612559565b9050919050565b6000819050919050565b612c7383612c3e565b612c87612c7f82612c60565b848454612be2565b825550505050565b600090565b612c9c612c8f565b612ca7818484612c6a565b505050565b5b81811015612ccb57612cc0600082612c94565b600181019050612cad565b5050565b601f821115612d1057612ce181612bb0565b612cea84612bc5565b81016020851015612cf9578190505b612d0d612d0585612bc5565b830182612cac565b50505b505050565b600082821c905092915050565b6000612d3360001984600802612d15565b1980831691505092915050565b6000612d4c8383612d22565b9150826002028217905092915050565b612d668383612ba5565b67ffffffffffffffff811115612d7f57612d7e612851565b5b612d898254612a6e565b612d94828285612ccf565b6000601f831160018114612dc35760008415612db1578287013590505b612dbb8582612d40565b865550612e23565b601f198416612dd186612bb0565b60005b82811015612df957848901358255600182019150602085019450602081019050612dd4565b86831015612e165784890135612e12601f891682612d22565b8355505b6001600288020188555050505b50505050505050565b7f7174793d30000000000000000000000000000000000000000000000000000000600082015250565b6000612e626005836124b2565b9150612e6d82612e2c565b602082019050919050565b60006020820190508181036000830152612e9181612e55565b9050919050565b6000612ea382612559565b9150612eae83612559565b9250828201905080821115612ec657612ec5612aff565b5b92915050565b7f6c696d6974207265616368656400000000000000000000000000000000000000600082015250565b6000612f02600d836124b2565b9150612f0d82612ecc565b602082019050919050565b60006020820190508181036000830152612f3181612ef5565b9050919050565b600081905092915050565b6000612f4e826124a7565b612f588185612f38565b9350612f688185602086016124c3565b80840191505092915050565b6000612f808285612f43565b9150612f8c8284612f43565b91508190509392505050565b7f6e6f74206f776e65720000000000000000000000000000000000000000000000600082015250565b6000612fce6009836124b2565b9150612fd982612f98565b602082019050919050565b60006020820190508181036000830152612ffd81612fc1565b9050919050565b600081519050919050565b600082825260208201905092915050565b600061302b82613004565b613035818561300f565b93506130458185602086016124c3565b61304e816124ed565b840191505092915050565b600060808201905061306e60008301876125ee565b61307b60208301866125ee565b6130886040830185612684565b818103606083015261309a8184613020565b905095945050505050565b6000815190506130b481612418565b92915050565b6000602082840312156130d0576130cf6123e2565b5b60006130de848285016130a5565b91505092915050565b7f4e487b7100000000000000000000000000000000000000000000000000000000600052601260045260246000fd5b600061312182612559565b915061312c83612559565b925082820390508181111561314457613143612aff565b5b92915050565b7f4e487b7100000000000000000000000000000000000000000000000000000000600052603160045260246000fdfea2646970667358221220685f4cbf743f5c7d661bb685b558d6db4dec1661d54362a5271c935aa714b54264736f6c63430008180033",
  "linkReferences": {},
  "deployedLinkReferences": {}
}