{
  "_format": "hh-sol-artifact-1",
  "contractName": "MockStaking",
  "sourceName": "contracts/MockStaking.sol",
  "abi": [
    {
      "inputs": [
        {
          "internalType": "address",
          "name": "heroNft",
          "type": "address"
        }
      ],
      "stateMutability": "nonpayable",
      "type": "constructor"
    },
    {
      "inputs": [
        {
          "internalType": "address",
          "name": "owner",
          "type": "address"
        }
      ],
      "name": "OwnableInvalidOwner",
      "type": "error"
    },
    {
      "inputs": [
        {
          "internalType": "address",
          "name": "account",
          "type": "address"
        }
      ],
      "name": "OwnableUnauthorizedAccount",
      "type": "error"
    },
    {
      "anonymous": false,
      "inputs": [
        {
          "indexed": true,
          "internalType": "address",
          "name": "previousOwner",
          "type": "address"
        },
        {
          "indexed": true,
          "internalType": "address",
          "name": "newOwner",
          "type": "address"
        }
      ],
      "name": "OwnershipTransferred",
      "type": "event"
    },
    {
      "anonymous": false,
      "inputs": [
        {
          "indexed": true,
          "internalType": "address",
          "name": "user",
          "type": "address"
        },
        {
          "indexed": false,
          "internalType": "uint256[]",
          "name": "ids",
          "type": "uint256[]"
        }
      ],
      "name": "Staked",
      "type": "event"
    },
    {
      "anonymous": false,
      "inputs": [
        {
          "indexed": true,
          "internalType": "address",
          "name": "user",
          "type": "address"
        },
        {
          "indexed": false,
          "internalType": "uint256[]",
          "name": "ids",
          "type": "uint256[]"
        }
      ],
      "name": "Unstaked",
      "type": "event"
    },
    {
      "inputs": [],
      "name": "hero",
      "outputs": [
        {
          "internalType": "contract IERC721",
          "name": "",
          "type": "address"
        }
      ],
      "stateMutability": "view",
      "type": "function"
    },
    {
      "inputs": [
        {
          "internalType": "uint256",
          "name": "",
          "type": "uint256"
        }
      ],
      "name": "isStaked",
      "outputs": [
        {
          "internalType": "bool",
          "name": "",
          "type": "bool"
        }
      ],
      "stateMutability": "view",
      "type": "function"
    },
    {
      "inputs": [],
      "name": "owner",
      "outputs": [
        {
          "internalType": "address",
          "name": "",
          "type": "address"
        }
      ],
      "stateMutability": "view",
      "type": "function"
    },
    {
      "inputs": [],
      "name": "renounceOwnership",
      "outputs": [],
      "stateMutability": "nonpayable",
      "type": "function"
    },
    {
      "inputs": [
        {
          "internalType": "uint256[]",
          "name": "ids",
          "type": "uint256[]"
        }
      ],
      "name": "stake",
      "outputs": [],
      "stateMutability": "nonpayable",
      "type": "function"
    },
    {
      "inputs": [
        {
          "internalType": "address",
          "name": "newOwner",
          "type": "address"
        }
      ],
      "name": "transferOwnership",
      "outputs": [],
      "stateMutability": "nonpayable",
      "type": "function"
    },
    {
      "inputs": [
        {
          "internalType": "uint256[]",
          "name": "ids",
          "type": "uint256[]"
        }
      ],
      "name": "unstake",
      "outputs": [],
      "stateMutability": "nonpayable",
      "type": "function"
    }
  ],
  "bytecode": "0x60a06040523480156200001157600080fd5b5060405162000ddd38038062000ddd833981810160405281019062000037919062000228565b33600073ffffffffffffffffffffffffffffffffffffffff168173ffffffffffffffffffffffffffffffffffffffff1603620000ad5760006040517f1e4fbdf7000000000000000000000000000000000000000000000000000000008152600401620000a491906200026b565b60405180910390fd5b620000be81620000fa60201b60201c565b508073ffffffffffffffffffffffffffffffffffffffff1660808173ffffffffffffffffffffffffffffffffffffffff16815250505062000288565b60008060009054906101000a900473ffffffffffffffffffffffffffffffffffffffff169050816000806101000a81548173ffffffffffffffffffffffffffffffffffffffff021916908373ffffffffffffffffffffffffffffffffffffffff1602179055508173ffffffffffffffffffffffffffffffffffffffff168173ffffffffffffffffffffffffffffffffffffffff167f8be0079c531659141344cd1fd0a4f28419497f9722a3daafe3b4186f6b6457e060405160405180910390a35050565b600080fd5b600073ffffffffffffffffffffffffffffffffffffffff82169050919050565b6000620001f082620001c3565b9050919050565b6200020281620001e3565b81146200020e57600080fd5b50565b6000815190506200022281620001f7565b92915050565b600060208284031215620002415762000240620001be565b5b6000620002518482850162000211565b91505092915050565b6200026581620001e3565b82525050565b60006020820190506200028260008301846200025a565b92915050565b608051610b2b620002b26000396000818161015c015281816102be01526103ff0152610b2b6000f3fe608060405234801561001057600080fd5b506004361061007d5760003560e01c80638da5cb5b1161005b5780638da5cb5b146100c6578063baa51f86146100e4578063e449f34114610114578063f2fde38b146101305761007d565b80630fbf0a9314610082578063715018a61461009e5780637f513d5d146100a8575b600080fd5b61009c6004803603810190610097919061074f565b61014c565b005b6100a66102a8565b005b6100b06102bc565b6040516100bd919061081b565b60405180910390f35b6100ce6102e0565b6040516100db9190610857565b60405180910390f35b6100fe60048036038101906100f991906108a8565b610309565b60405161010b91906108f0565b60405180910390f35b61012e6004803603810190610129919061074f565b610329565b005b61014a60048036038101906101459190610937565b610507565b005b60005b82829050811015610253577f000000000000000000000000000000000000000000000000000000000000000073ffffffffffffffffffffffffffffffffffffffff166323b872dd33308686868181106101ab576101aa610964565b5b905060200201356040518463ffffffff1660e01b81526004016101d0939291906109a2565b600060405180830381600087803b1580156101ea57600080fd5b505af11580156101fe573d6000803e3d6000fd5b50505050600180600085858581811061021a57610219610964565b5b90506020020135815260200190815260200160002060006101000a81548160ff021916908315150217905550808060010191505061014f565b503373ffffffffffffffffffffffffffffffffffffffff167f134b166c6094cc1ccbf1e3353ce5c3cd9fd29869051bdb999895854d77cc5ef6838360405161029c929190610a54565b60405180910390a25050565b6102b061058d565b6102ba6000610614565b565b7f000000000000000000000000000000000000000000000000000000000000000081565b60008060009054906101000a900473ffffffffffffffffffffffffffffffffffffffff16905090565b60016020528060005260406000206000915054906101000a900460ff1681565b61033161058d565b60005b828290508110156104b2576001600084848481811061035657610355610964565b5b90506020020135815260200190815260200160002060009054906101000a900460ff166103b8576040517f08c379a00000000000000000000000000000000000000000000000000000000081526004016103af90610ad5565b60405180910390fd5b6000600160008585858181106103d1576103d0610964565b5b90506020020135815260200190815260200160002060006101000a81548160ff0219169083151502179055507f000000000000000000000000000000000000000000000000000000000000000073ffffffffffffffffffffffffffffffffffffffff166323b872dd303386868681811061044e5761044d610964565b5b905060200201356040518463ffffffff1660e01b8152600401610473939291906109a2565b600060405180830381600087803b15801561048d57600080fd5b505af11580156104a1573d6000803e3d6000fd5b505050508080600101915050610334565b503373ffffffffffffffffffffffffffffffffffffffff167f20748b935fd9f21155c2e98cb2bd5df6fe86f21b193cebaae8d9ad7db0ba541683836040516104fb929190610a54565b60405180910390a25050565b61050f61058d565b600073ffffffffffffffffffffffffffffffffffffffff168173ffffffffffffffffffffffffffffffffffffffff16036105815760006040517f1e4fbdf70000000000000000000000000000000000000000000000000000000081526004016105789190610857565b60405180910390fd5b61058a81610614565b50565b6105956106d8565b73ffffffffffffffffffffffffffffffffffffffff166105b36102e0565b73ffffffffffffffffffffffffffffffffffffffff1614610612576105d66106d8565b6040517f118cdaa70000000000000000000000000000000000000000000000000000000081526004016106099190610857565b60405180910390fd5b565b60008060009054906101000a900473ffffffffffffffffffffffffffffffffffffffff169050816000806101000a81548173ffffffffffffffffffffffffffffffffffffffff021916908373ffffffffffffffffffffffffffffffffffffffff1602179055508173ffffffffffffffffffffffffffffffffffffffff168173ffffffffffffffffffffffffffffffffffffffff167f8be0079c531659141344cd1fd0a4f28419497f9722a3daafe3b4186f6b6457e060405160405180910390a35050565b600033905090565b600080fd5b600080fd5b600080fd5b600080fd5b600080fd5b60008083601f84011261070f5761070e6106ea565b5b8235905067ffffffffffffffff81111561072c5761072b6106ef565b5b602083019150836020820283011115610748576107476106f4565b5b9250929050565b60008060208385031215610766576107656106e0565b5b600083013567ffffffffffffffff811115610784576107836106e5565b5b610790858286016106f9565b92509250509250929050565b600073ffffffffffffffffffffffffffffffffffffffff82169050919050565b6000819050919050565b60006107e16107dc6107d78461079c565b6107bc565b61079c565b9050919050565b60006107f3826107c6565b9050919050565b6000610805826107e8565b9050919050565b610815816107fa565b82525050565b6000602082019050610830600083018461080c565b92915050565b60006108418261079c565b9050919050565b61085181610836565b82525050565b600060208201905061086c6000830184610848565b92915050565b6000819050919050565b61088581610872565b811461089057600080fd5b50565b6000813590506108a28161087c565b92915050565b6000602082840312156108be576108bd6106e0565b5b60006108cc84828501610893565b91505092915050565b60008115159050919050565b6108ea816108d5565b82525050565b600060208201905061090560008301846108e1565b92915050565b61091481610836565b811461091f57600080fd5b50565b6000813590506109318161090b565b92915050565b60006020828403121561094d5761094c6106e0565b5b600061095b84828501610922565b91505092915050565b7f4e487b7100000000000000000000000000000000000000000000000000000000600052603260045260246000fd5b61099c81610872565b82525050565b60006060820190506109b76000830186610848565b6109c46020830185610848565b6109d16040830184610993565b949350505050565b600082825260208201905092915050565b600080fd5b82818337505050565b6000610a0483856109d9565b93507f07ffffffffffffffffffffffffffffffffffffffffffffffffffffffffffffff831115610a3757610a366109ea565b5b602083029250610a488385846109ef565b82840190509392505050565b60006020820190508181036000830152610a6f8184866109f8565b90509392505050565b600082825260208201905092915050565b7f6e6f74207374616b656400000000000000000000000000000000000000000000600082015250565b6000610abf600a83610a78565b9150610aca82610a89565b602082019050919050565b60006020820190508181036000830152610aee81610ab2565b905091905056fea26469706673582212206e3d9014b72405f2471a5713afdd0aa5c23d60ea6e0e43253e680db8a5c30fb364736f6c63430008180033",
  "linkReferences": {},
  "deployedLinkReferences": {}
}