{
  "_format": "hh-sol-artifact-1",
  "contractName": "Marketplace",
  "sourceName": "contracts/Marketplace.sol",
  "abi": [
    {
      "inputs": [
        {
          "internalType": "address",
          "name": "_feeRecipient",
          "type": "address"
        }
      ],
      "stateMutability": "nonpayable",
      "type": "constructor"
    },
    {
      "inputs": [
        {
          "internalType": "address",
          "name": "owner",
          "type": "address"
        }
      ],
      "name": "OwnableInvalidOwner",
      "type": "error"
    },
    {
      "inputs": [
        {
          "internalType": "address",
          "name": "account",
          "type": "address"
        }
      ],
      "name": "OwnableUnauthorizedAccount",
      "type": "error"
    },
    {
      "anonymous": false,
      "inputs": [
        {
          "indexed": true,
          "internalType": "address",
          "name": "buyer",
          "type": "address"
        },
        {
          "indexed": true,
          "internalType": "address",
          "name": "nft",
          "type": "address"
        },
        {
          "indexed": true,
          "internalType": "uint256",
          "name": "tokenId",
          "type": "uint256"
        },
        {
          "indexed": false,
          "internalType": "uint256",
          "name": "price",
          "type": "uint256"
        }
      ],
      "name": "Bought",
      "type": "event"
    },
    {
      "anonymous": false,
      "inputs": [
        {
          "indexed": true,
          "internalType": "address",
          "name": "seller",
          "type": "address"
        },
        {
          "indexed": true,
          "internalType": "address",
          "name": "nft",
          "type": "address"
        },
        {
          "indexed": true,
          "internalType": "uint256",
          "name": "tokenId",
          "type": "uint256"
        }
      ],
      "name": "Canceled",
      "type": "event"
    },
    {
      "anonymous": false,
      "inputs": [
        {
          "indexed": true,
          "internalType": "address",
          "name": "seller",
          "type": "address"
        },
        {
          "indexed": true,
          "internalType": "address",
          "name": "nft",
          "type": "address"
        },
        {
          "indexed": true,
          "internalType": "uint256",
          "name": "tokenId",
          "type": "uint256"
        },
        {
          "indexed": false,
          "internalType": "uint256",
          "name": "price",
          "type": "uint256"
        }
      ],
      "name": "Listed",
      "type": "event"
    },
    {
      "anonymous": false,
      "inputs": [
        {
          "indexed": true,
          "internalType": "address",
          "name": "previousOwner",
          "type": "address"
        },
        {
          "indexed": true,
          "internalType": "address",
          "name": "newOwner",
          "type": "address"
        }
      ],
      "name": "OwnershipTransferred",
      "type": "event"
    },
    {
      "inputs": [
        {
          "internalType": "address",
          "name": "nft",
          "type": "address"
        },
        {
          "internalType": "uint256",
          "name": "tokenId",
          "type": "uint256"
        }
      ],
      "name": "buy",
      "outputs": [],
      "stateMutability": "payable",
      "type": "function"
    },
    {
      "inputs": [
        {
          "internalType": "address",
          "name": "nft",
          "type": "address"
        },
        {
          "internalType": "uint256",
          "name": "tokenId",
          "type": "uint256"
        }
      ],
      "name": "cancel",
      "outputs": [],
      "stateMutability": "nonpayable",
      "type": "function"
    },
    {
      "inputs": [],
      "name": "feeBps",
      "outputs": [
        {
          "internalType": "uint256",
          "name": "",
          "type": "uint256"
        }
      ],
      "stateMutability": "view",
      "type": "function"
    },
    {
      "inputs": [],
      "name": "feeRecipient",
      "outputs": [
        {
          "internalType": "address",
          "name": "",
          "type": "address"
        }
      ],
      "stateMutability": "view",
      "type": "function"
    },
    {
      "inputs": [
        {
          "internalType": "address",
          "name": "nft",
          "type": "address"
        },
        {
          "internalType": "uint256",
          "name": "tokenId",
          "type": "uint256"
        },
        {
          "internalType": "uint256",
          "name": "price",
          "type": "uint256"
        }
      ],
      "name": "list",
      "outputs": [],
      "stateMutability": "nonpayable",
      "type": "function"
    },
    {
      "inputs": [
        {
          "internalType": "bytes32",
          "name": "",
          "type": "bytes32"
        }
      ],
      "name": "listings",
      "outputs": [
        {
          "internalType": "address",
          "name": "seller",
          "type": "address"
        },
        {
          "internalType": "address",
          "name": "nft",
          "type": "address"
        },
        {
          "internalType": "uint256",
          "name": "tokenId",
          "type": "uint256"
        },
        {
          "internalType": "uint256",
          "name": "price",
          "type": "uint256"
        },
        {
          "internalType": "bool",
          "name": "active",
          "type": "bool"
        }
      ],
      "stateMutability": "view",
      "type": "function"
    },
    {
      "inputs": [],
      "name": "owner",
      "outputs": [
        {
          "internalType": "address",
          "name": "",
          "type": "address"
        }
      ],
      "stateMutability": "view",
      "type": "function"
    },
    {
      "inputs": [],
      "name": "renounceOwnership",
      "outputs": [],
      "stateMutability": "nonpayable",
      "type": "function"
    },
    {
      "inputs": [
        {
          "internalType": "uint256",
          "name": "bps",
          "type": "uint256"
        },
        {
          "internalType": "address",
          "name": "recipient",
          "type": "address"
        }
      ],
      "name": "setFee",
      "outputs": [],
      "stateMutability": "nonpayable",
      "type": "function"
    },
    {
      "inputs": [
        {
          "internalType": "address",
          "name": "newOwner",
          "type": "address"
        }
      ],
      "name": "transferOwnership",
      "outputs": [],
      "stateMutability": "nonpayable",
      "type": "function"
    }
  ],
  "bytecode": "0x608060405260fa6002553480156200001657600080fd5b5060405162001af938038062001af983398181016040528101906200003c91906200023a565b33600073ffffffffffffffffffffffffffffffffffffffff168173ffffffffffffffffffffffffffffffffffffffff1603620000b25760006040517f1e4fbdf7000000000000000000000000000000000000000000000000000000008152600401620000a991906200027d565b60405180910390fd5b620000c3816200010c60201b60201c565b5080600360006101000a81548173ffffffffffffffffffffffffffffffffffffffff021916908373ffffffffffffffffffffffffffffffffffffffff160217905550506200029a565b60008060009054906101000a900473ffffffffffffffffffffffffffffffffffffffff169050816000806101000a81548173ffffffffffffffffffffffffffffffffffffffff021916908373ffffffffffffffffffffffffffffffffffffffff1602179055508173ffffffffffffffffffffffffffffffffffffffff168173ffffffffffffffffffffffffffffffffffffffff167f8be0079c531659141344cd1fd0a4f28419497f9722a3daafe3b4186f6b6457e060405160405180910390a35050565b600080fd5b600073ffffffffffffffffffffffffffffffffffffffff82169050919050565b60006200020282620001d5565b9050919050565b6200021481620001f5565b81146200022057600080fd5b50565b600081519050620002348162000209565b92915050565b600060208284031215620002535762000252620001d0565b5b6000620002638482850162000223565b91505092915050565b6200027781620001f5565b82525050565b60006020820190506200029460008301846200026c565b92915050565b61184f80620002aa6000396000f3fe6080604052600436106100915760003560e01c8063b4f2e8b811610059578063b4f2e8b814610157578063c18b8db414610180578063cce7ec13146101c1578063dda342bb146101dd578063f2fde38b1461020657610091565b806324a9d8531461009657806346904840146100c1578063715018a6146100ec5780638da5cb5b1461010357806398590ef91461012e575b600080fd5b3480156100a257600080fd5b506100ab61022f565b6040516100b89190611058565b60405180910390f35b3480156100cd57600080fd5b506100d6610235565b6040516100e391906110b4565b60405180910390f35b3480156100f857600080fd5b5061010161025b565b005b34801561010f57600080fd5b5061011861026f565b60405161012591906110b4565b60405180910390f35b34801561013a57600080fd5b506101556004803603810190610150919061112c565b610298565b005b34801561016357600080fd5b5061017e6004803603810190610179919061116c565b6105b1565b005b34801561018c57600080fd5b506101a760048036038101906101a291906111e2565b61064a565b6040516101b895949392919061122a565b60405180910390f35b6101db60048036038101906101d6919061112c565b6106cd565b005b3480156101e957600080fd5b5061020460048036038101906101ff919061127d565b610bdf565b005b34801561021257600080fd5b5061022d600480360381019061022891906112d0565b610e33565b005b60025481565b600360009054906101000a900473ffffffffffffffffffffffffffffffffffffffff1681565b610263610eb9565b61026d6000610f40565b565b60008060009054906101000a900473ffffffffffffffffffffffffffffffffffffffff16905090565b60006102a48383611004565b90506000600160008381526020019081526020016000206040518060a00160405290816000820160009054906101000a900473ffffffffffffffffffffffffffffffffffffffff1673ffffffffffffffffffffffffffffffffffffffff1673ffffffffffffffffffffffffffffffffffffffff1681526020016001820160009054906101000a900473ffffffffffffffffffffffffffffffffffffffff1673ffffffffffffffffffffffffffffffffffffffff1673ffffffffffffffffffffffffffffffffffffffff16815260200160028201548152602001600382015481526020016004820160009054906101000a900460ff161515151581525050905080608001516103e7576040517f08c379a00000000000000000000000000000000000000000000000000000000081526004016103de9061135a565b60405180910390fd5b3373ffffffffffffffffffffffffffffffffffffffff16816000015173ffffffffffffffffffffffffffffffffffffffff1614610459576040517f08c379a0000000000000000000000000000000000000000000000000000000008152600401610450906113c6565b60405180910390fd5b60016000838152602001908152602001600020600080820160006101000a81549073ffffffffffffffffffffffffffffffffffffffff02191690556001820160006101000a81549073ffffffffffffffffffffffffffffffffffffffff0219169055600282016000905560038201600090556004820160006101000a81549060ff021916905550508373ffffffffffffffffffffffffffffffffffffffff166323b872dd3033866040518463ffffffff1660e01b815260040161051e939291906113e6565b600060405180830381600087803b15801561053857600080fd5b505af115801561054c573d6000803e3d6000fd5b50505050828473ffffffffffffffffffffffffffffffffffffffff163373ffffffffffffffffffffffffffffffffffffffff167f7a474a7438d5f1dd10b368d84960c99d45e011ac29f2f10d6acfbb1aa284cf4960405160405180910390a450505050565b6105b9610eb9565b6103e88211156105fe576040517f08c379a00000000000000000000000000000000000000000000000000000000081526004016105f590611469565b60405180910390fd5b8160028190555080600360006101000a81548173ffffffffffffffffffffffffffffffffffffffff021916908373ffffffffffffffffffffffffffffffffffffffff1602179055505050565b60016020528060005260406000206000915090508060000160009054906101000a900473ffffffffffffffffffffffffffffffffffffffff16908060010160009054906101000a900473ffffffffffffffffffffffffffffffffffffffff16908060020154908060030154908060040160009054906101000a900460ff16905085565b60006106d98383611004565b90506000600160008381526020019081526020016000206040518060a00160405290816000820160009054906101000a900473ffffffffffffffffffffffffffffffffffffffff1673ffffffffffffffffffffffffffffffffffffffff1673ffffffffffffffffffffffffffffffffffffffff1681526020016001820160009054906101000a900473ffffffffffffffffffffffffffffffffffffffff1673ffffffffffffffffffffffffffffffffffffffff1673ffffffffffffffffffffffffffffffffffffffff16815260200160028201548152602001600382015481526020016004820160009054906101000a900460ff1615151515815250509050806080015161081c576040517f08c379a00000000000000000000000000000000000000000000000000000000081526004016108139061135a565b60405180910390fd5b80606001513414610862576040517f08c379a0000000000000000000000000000000000000000000000000000000008152600401610859906114d5565b60405180910390fd5b60016000838152602001908152602001600020600080820160006101000a81549073ffffffffffffffffffffffffffffffffffffffff02191690556001820160006101000a81549073ffffffffffffffffffffffffffffffffffffffff0219169055600282016000905560038201600090556004820160006101000a81549060ff021916905550506000612710600254346108fd9190611524565b6109079190611595565b90506000813461091791906115c6565b90506000821180156109785750600073ffffffffffffffffffffffffffffffffffffffff16600360009054906101000a900473ffffffffffffffffffffffffffffffffffffffff1673ffffffffffffffffffffffffffffffffffffffff1614155b15610a4d576000600360009054906101000a900473ffffffffffffffffffffffffffffffffffffffff1673ffffffffffffffffffffffffffffffffffffffff16836040516109c59061162b565b60006040518083038185875af1925050503d8060008114610a02576040519150601f19603f3d011682016040523d82523d6000602084013e610a07565b606091505b5050905080610a4b576040517f08c379a0000000000000000000000000000000000000000000000000000000008152600401610a429061168c565b60405180910390fd5b505b6000836000015173ffffffffffffffffffffffffffffffffffffffff1682604051610a779061162b565b60006040518083038185875af1925050503d8060008114610ab4576040519150601f19603f3d011682016040523d82523d6000602084013e610ab9565b606091505b5050905080610afd576040517f08c379a0000000000000000000000000000000000000000000000000000000008152600401610af4906116f8565b60405180910390fd5b8673ffffffffffffffffffffffffffffffffffffffff166323b872dd3033896040518463ffffffff1660e01b8152600401610b3a939291906113e6565b600060405180830381600087803b158015610b5457600080fd5b505af1158015610b68573d6000803e3d6000fd5b50505050858773ffffffffffffffffffffffffffffffffffffffff163373ffffffffffffffffffffffffffffffffffffffff167fbf77fd13a39d14dc0da779342c14105c38d9a5d0c60f2caa22f5fd1d5525416d8760600151604051610bce9190611058565b60405180910390a450505050505050565b60008111610c22576040517f08c379a0000000000000000000000000000000000000000000000000000000008152600401610c1990611764565b60405180910390fd5b8273ffffffffffffffffffffffffffffffffffffffff166323b872dd3330856040518463ffffffff1660e01b8152600401610c5f939291906113e6565b600060405180830381600087803b158015610c7957600080fd5b505af1158015610c8d573d6000803e3d6000fd5b505050506040518060a001604052803373ffffffffffffffffffffffffffffffffffffffff1681526020018473ffffffffffffffffffffffffffffffffffffffff1681526020018381526020018281526020016001151581525060016000610cf58686611004565b815260200190815260200160002060008201518160000160006101000a81548173ffffffffffffffffffffffffffffffffffffffff021916908373ffffffffffffffffffffffffffffffffffffffff16021790555060208201518160010160006101000a81548173ffffffffffffffffffffffffffffffffffffffff021916908373ffffffffffffffffffffffffffffffffffffffff160217905550604082015181600201556060820151816003015560808201518160040160006101000a81548160ff021916908315150217905550905050818373ffffffffffffffffffffffffffffffffffffffff163373ffffffffffffffffffffffffffffffffffffffff167fd9d69fee247951cc283dc6f5b64c36ce396a36146405a798b86ebfd113c8b5ca84604051610e269190611058565b60405180910390a4505050565b610e3b610eb9565b600073ffffffffffffffffffffffffffffffffffffffff168173ffffffffffffffffffffffffffffffffffffffff1603610ead5760006040517f1e4fbdf7000000000000000000000000000000000000000000000000000000008152600401610ea491906110b4565b60405180910390fd5b610eb681610f40565b50565b610ec1611037565b73ffffffffffffffffffffffffffffffffffffffff16610edf61026f565b73ffffffffffffffffffffffffffffffffffffffff1614610f3e57610f02611037565b6040517f118cdaa7000000000000000000000000000000000000000000000000000000008152600401610f3591906110b4565b60405180910390fd5b565b60008060009054906101000a900473ffffffffffffffffffffffffffffffffffffffff169050816000806101000a81548173ffffffffffffffffffffffffffffffffffffffff021916908373ffffffffffffffffffffffffffffffffffffffff1602179055508173ffffffffffffffffffffffffffffffffffffffff168173ffffffffffffffffffffffffffffffffffffffff167f8be0079c531659141344cd1fd0a4f28419497f9722a3daafe3b4186f6b6457e060405160405180910390a35050565b600082826040516020016110199291906117ed565b60405160208183030381529060405280519060200120905092915050565b600033905090565b6000819050919050565b6110528161103f565b82525050565b600060208201905061106d6000830184611049565b92915050565b600073ffffffffffffffffffffffffffffffffffffffff82169050919050565b600061109e82611073565b9050919050565b6110ae81611093565b82525050565b60006020820190506110c960008301846110a5565b92915050565b600080fd5b6110dd81611093565b81146110e857600080fd5b50565b6000813590506110fa816110d4565b92915050565b6111098161103f565b811461111457600080fd5b50565b60008135905061112681611100565b92915050565b60008060408385031215611143576111426110cf565b5b6000611151858286016110eb565b925050602061116285828601611117565b9150509250929050565b60008060408385031215611183576111826110cf565b5b600061119185828601611117565b92505060206111a2858286016110eb565b9150509250929050565b6000819050919050565b6111bf816111ac565b81146111ca57600080fd5b50565b6000813590506111dc816111b6565b92915050565b6000602082840312156111f8576111f76110cf565b5b6000611206848285016111cd565b91505092915050565b60008115159050919050565b6112248161120f565b82525050565b600060a08201905061123f60008301886110a5565b61124c60208301876110a5565b6112596040830186611049565b6112666060830185611049565b611273608083018461121b565b9695505050505050565b600080600060608486031215611296576112956110cf565b5b60006112a4868287016110eb565b93505060206112b586828701611117565b92505060406112c686828701611117565b9150509250925092565b6000602082840312156112e6576112e56110cf565b5b60006112f4848285016110eb565b91505092915050565b600082825260208201905092915050565b7f6e6f74206c697374656400000000000000000000000000000000000000000000600082015250565b6000611344600a836112fd565b915061134f8261130e565b602082019050919050565b6000602082019050818103600083015261137381611337565b9050919050565b7f6e6f742073656c6c657200000000000000000000000000000000000000000000600082015250565b60006113b0600a836112fd565b91506113bb8261137a565b602082019050919050565b600060208201905081810360008301526113df816113a3565b9050919050565b60006060820190506113fb60008301866110a5565b61140860208301856110a5565b6114156040830184611049565b949350505050565b7f66656520746f6f20686967680000000000000000000000000000000000000000600082015250565b6000611453600c836112fd565b915061145e8261141d565b602082019050919050565b6000602082019050818103600083015261148281611446565b9050919050565b7f6261642070726963650000000000000000000000000000000000000000000000600082015250565b60006114bf6009836112fd565b91506114ca82611489565b602082019050919050565b600060208201905081810360008301526114ee816114b2565b9050919050565b7f4e487b7100000000000000000000000000000000000000000000000000000000600052601160045260246000fd5b600061152f8261103f565b915061153a8361103f565b92508282026115488161103f565b9150828204841483151761155f5761155e6114f5565b5b5092915050565b7f4e487b7100000000000000000000000000000000000000000000000000000000600052601260045260246000fd5b60006115a08261103f565b91506115ab8361103f565b9250826115bb576115ba611566565b5b828204905092915050565b60006115d18261103f565b91506115dc8361103f565b92508282039050818111156115f4576115f36114f5565b5b92915050565b600081905092915050565b50565b60006116156000836115fa565b915061162082611605565b600082019050919050565b600061163682611608565b9150819050919050565b7f666565206661696c000000000000000000000000000000000000000000000000600082015250565b60006116766008836112fd565b915061168182611640565b602082019050919050565b600060208201905081810360008301526116a581611669565b9050919050565b7f706179206661696c000000000000000000000000000000000000000000000000600082015250565b60006116e26008836112fd565b91506116ed826116ac565b602082019050919050565b60006020820190508181036000830152611711816116d5565b9050919050565b7f70726963653d3000000000000000000000000000000000000000000000000000600082015250565b600061174e6007836112fd565b915061175982611718565b602082019050919050565b6000602082019050818103600083015261177d81611741565b9050919050565b60008160601b9050919050565b600061179c82611784565b9050919050565b60006117ae82611791565b9050919050565b6117c66117c182611093565b6117a3565b82525050565b6000819050919050565b6117e76117e28261103f565b6117cc565b82525050565b60006117f982856117b5565b60148201915061180982846117d6565b602082019150819050939250505056fea2646970667358221220453fc9574f52fcf813189561cfb15840c73cf03dcbf0d8ff0d8a4f4ccc72ae7a64736f6c63430008180033",
  "linkReferences": {},
  "deployedLinkReferences": {}
}