{
  "_format": "hh-sol-artifact-1",
  "contractName": "MockHeroNFT",
  "sourceName": "contracts/MockHeroNFT.sol",
  "abi": [
    {
      "inputs": [],
      "stateMutability": "nonpayable",
      "type": "constructor"
    },
    {
      "inputs": [],
      "name": "ERC721EnumerableForbiddenBatchMint",
      "type": "error"
    },
    {
      "inputs": [
        {
          "internalType": "address",
          "name": "sender",
          "type": "address"
        },
        {
          "internalType": "uint256",
          "name": "tokenId",
          "type": "uint256"
        },
        {
          "internalType": "address",
          "name": "owner",
          "type": "address"
        }
      ],
      "name": "ERC721IncorrectOwner",
      "type": "error"
    },
    {
      "inputs": [
        {
          "internalType": "address",
          "name": "operator",
          "type": "address"
        },
        {
          "internalType": "uint256",
          "name": "tokenId",
          "type": "uint256"
        }
      ],
      "name": "ERC721InsufficientApproval",
      "type": "error"
    },
    {
      "inputs": [
        {
          "internalType": "address",
          "name": "approver",
          "type": "address"
        }
      ],
      "name": "ERC721InvalidApprover",
      "type": "error"
    },
    {
      "inputs": [
        {
          "internalType": "address",
          "name": "operator",
          "type": "address"
        }
      ],
      "name": "ERC721InvalidOperator",
      "type": "error"
    },
    {
      "inputs": [
        {
          "internalType": "address",
          "name": "owner",
          "type": "address"
        }
      ],
      "name": "ERC721InvalidOwner",
      "type": "error"
    },
    {
      "inputs": [
        {
          "internalType": "address",
          "name": "receiver",
          "type": "address"
        }
      ],
      "name": "ERC721InvalidReceiver",
      "type": "error"
    },
    {
      "inputs": [
        {
          "internalType": "address",
          "name": "sender",
          "type": "address"
        }
      ],
      "name": "ERC721InvalidSender",
      "type": "error"
    },
    {
      "inputs": [
        {
          "internalType": "uint256",
          "name": "tokenId",
          "type": "uint256"
        }
      ],
      "name": "ERC721NonexistentToken",
      "type": "error"
    },
    {
      "inputs": [
        {
          "internalType": "address",
          "name": "owner",
          "type": "address"
        },
        {
          "internalType": "uint256",
          "name": "index",
          "type": "uint256"
        }
      ],
      "name": "ERC721OutOfBoundsIndex",
      "type": "error"
    },
    {
      "inputs": [
        {
          "internalType": "address",
          "name": "owner",
          "type": "address"
        }
      ],
      "name": "OwnableInvalidOwner",
      "type": "error"
    },
    {
      "inputs": [
        {
          "internalType": "address",
          "name": "account",
          "type": "address"
        }
      ],
      "name": "OwnableUnauthorizedAccount",
      "type": "error"
    },
    {
      "anonymous": false,
      "inputs": [
        {
          "indexed": true,
          "internalType": "address",
          "name": "owner",
          "type": "address"
        },
        {
          "indexed": true,
          "internalType": "address",
          "name": "approved",
          "type": "address"
        },
        {
          "indexed": true,
          "internalType": "uint256",
          "name": "tokenId",
          "type": "uint256"
        }
      ],
      "name": "Approval",
      "type": "event"
    },
    {
      "anonymous": false,
      "inputs": [
        {
          "indexed": true,
          "internalType": "address",
          "name": "owner",
          "type": "address"
        },
        {
          "indexed": true,
          "internalType": "address",
          "name": "operator",
          "type": "address"
        },
        {
          "indexed": false,
          "internalType": "bool",
          "name": "approved",
          "type": "bool"
        }
      ],
      "name": "ApprovalForAll",
      "type": "event"
    },
    {
      "anonymous": false,
      "inputs": [
        {
          "indexed": true,
          "internalType": "address",
          "name": "previousOwner",
          "type": "address"
        },
        {
          "indexed": true,
          "internalType": "address",
          "name": "newOwner",
          "type": "address"
        }
      ],
      "name": "OwnershipTransferred",
      "type": "event"
    },
    {
      "anonymous": false,
      "inputs": [
        {
          "indexed": true,
          "internalType": "address",
          "name": "from",
          "type": "address"
        },
        {
          "indexed": true,
          "internalType": "address",
          "name": "to",
          "type": "address"
        },
        {
          "indexed": true,
          "internalType": "uint256",
          "name": "tokenId",
          "type": "uint256"
        }
      ],
      "name": "Transfer",
      "type": "event"
    },
    {
      "inputs": [],
      "name": "MAX_PER_ADDRESS",
      "outputs": [
        {
          "internalType": "uint256",
          "name": "",
          "type": "uint256"
        }
      ],
      "stateMutability": "view",
      "type": "function"
    },
    {
      "inputs": [
        {
          "internalType": "address",
          "name": "to",
          "type": "address"
        },
        {
          "internalType": "uint256",
          "name": "tokenId",
          "type": "uint256"
        }
      ],
      "name": "approve",
      "outputs": [],
      "stateMutability": "nonpayable",
      "type": "function"
    },
    {
      "inputs": [
        {
          "internalType": "address",
          "name": "owner",
          "type": "address"
        }
      ],
      "name": "balanceOf",
      "outputs": [
        {
          "internalType": "uint256",
          "name": "",
          "type": "uint256"
        }
      ],
      "stateMutability": "view",
      "type": "function"
    },
    {
      "inputs": [
        {
          "internalType": "uint256",
          "name": "tokenId",
          "type": "uint256"
        }
      ],
      "name": "getApproved",
      "outputs": [
        {
          "internalType": "address",
          "name": "",
          "type": "address"
        }
      ],
      "stateMutability": "view",
      "type": "function"
    },
    {
      "inputs": [
        {
          "internalType": "address",
          "name": "owner",
          "type": "address"
        },
        {
          "internalType": "address",
          "name": "operator",
          "type": "address"
        }
      ],
      "name": "isApprovedForAll",
      "outputs": [
        {
          "internalType": "bool",
          "name": "",
          "type": "bool"
        }
      ],
      "stateMutability": "view",
      "type": "function"
    },
    {
      "inputs": [
        {
          "internalType": "address",
          "name": "to",
          "type": "address"
        },
        {
          "internalType": "uint256",
          "name": "qty",
          "type": "uint256"
        }
      ],
      "name": "mint",
      "outputs": [],
      "stateMutability": "nonpayable",
      "type": "function"
    },
    {
      "inputs": [
        {
          "internalType": "uint256",
          "name": "qty",
          "type": "uint256"
        }
      ],
      "name": "mintSelf",
      "outputs": [],
      "stateMutability": "nonpayable",
      "type": "function"
    },
    {
      "inputs": [
        {
          "internalType": "address",
          "name": "",
          "type": "address"
        }
      ],
      "name": "mintedBy",
      "outputs": [
        {
          "internalType": "uint256",
          "name": "",
          "type": "uint256"
        }
      ],
      "stateMutability": "view",
      "type": "function"
    },
    {
      "inputs": [],
      "name": "name",
      "outputs": [
        {
          "internalType": "string",
          "name": "",
          "type": "string"
        }
      ],
      "stateMutability": "view",
      "type": "function"
    },
    {
      "inputs": [],
      "name": "nextId",
      "outputs": [
        {
          "internalType": "uint256",
          "name": "",
          "type": "uint256"
        }
      ],
      "stateMutability": "view",
      "type": "function"
    },
    {
      "inputs": [],
      "name": "owner",
      "outputs": [
        {
          "internalType": "address",
          "name": "",
          "type": "address"
        }
      ],
      "stateMutability": "view",
      "type": "function"
    },
    {
      "inputs": [
        {
          "internalType": "uint256",
          "name": "tokenId",
          "type": "uint256"
        }
      ],
      "name": "ownerOf",
      "outputs": [
        {
          "internalType": "address",
          "name": "",
          "type": "address"
        }
      ],
      "stateMutability": "view",
      "type": "function"
    },
    {
      "inputs": [],
      "name": "renounceOwnership",
      "outputs": [],
      "stateMutability": "nonpayable",
      "type": "function"
    },
    {
      "inputs": [
        {
          "internalType": "address",
          "name": "from",
          "type": "address"
        },
        {
          "internalType": "address",
          "name": "to",
          "type": "address"
        },
        {
          "internalType": "uint256",
          "name": "tokenId",
          "type": "uint256"
        }
      ],
      "name": "safeTransferFrom",
      "outputs": [],
      "stateMutability": "nonpayable",
      "type": "function"
    },
    {
      "inputs": [
        {
          "internalType": "address",
          "name": "from",
          "type": "address"
        },
        {
          "internalType": "address",
          "name": "to",
          "type": "address"
        },
        {
          "internalType": "uint256",
          "name": "tokenId",
          "type": "uint256"
        },
        {
          "internalType": "bytes",
          "name": "data",
          "type": "bytes"
        }
      ],
      "name": "safeTransferFrom",
      "outputs": [],
      "stateMutability": "nonpayable",
      "type": "function"
    },
    {
      "inputs": [
        {
          "internalType": "address",
          "name": "operator",
          "type": "address"
        },
        {
          "internalType": "bool",
          "name": "approved",
          "type": "bool"
        }
      ],
      "name": "setApprovalForAll",
      "outputs": [],
      "stateMutability": "nonpayable",
      "type": "function"
    },
    {
      "inputs": [
        {
          "internalType": "bytes4",
          "name": "interfaceId",
          "type": "bytes4"
        }
      ],
      "name": "supportsInterface",
      "outputs": [
        {
          "internalType": "bool",
          "name": "",
          "type": "bool"
        }
      ],
      "stateMutability": "view",
      "type": "function"
    },
    {
      "inputs": [],
      "name": "symbol",
      "outputs": [
        {
          "internalType": "string",
          "name": "",
          "type": "string"
        }
      ],
      "stateMutability": "view",
      "type": "function"
    },
    {
      "inputs": [
        {
          "internalType": "uint256",
          "name": "index",
          "type": "uint256"
        }
      ],
      "name": "tokenByIndex",
      "outputs": [
        {
          "internalType": "uint256",
          "name": "",
          "type": "uint256"
        }
      ],
      "stateMutability": "view",
      "type": "function"
    },
    {
      "inputs": [
        {
          "internalType": "address",
          "name": "owner",
          "type": "address"
        },
        {
          "internalType": "uint256",
          "name": "index",
          "type": "uint256"
        }
      ],
      "name": "tokenOfOwnerByIndex",
      "outputs": [
        {
          "internalType": "uint256",
          "name": "",
          "type": "uint256"
        }
      ],
      "stateMutability": "view",
      "type": "function"
    },
    {
      "inputs": [
        {
          "internalType": "uint256",
          "name": "tokenId",
          "type": "uint256"
        }
      ],
      "name": "tokenURI",
      "outputs": [
        {
          "internalType": "string",
          "name": "",
          "type": "string"
        }
      ],
      "stateMutability": "view",
      "type": "function"
    },
    {
      "inputs": [],
      "name": "totalSupply",
      "outputs": [
        {
          "internalType": "uint256",
          "name": "",
          "type": "uint256"
        }
      ],
      "stateMutability": "view",
      "type": "function"
    },
    {
      "inputs": [
        {
          "internalType": "address",
          "name": "from",
          "type": "address"
        },
        {
          "internalType": "address",
          "name": "to",
          "type": "address"
        },
        {
          "internalType": "uint256",
          "name": "tokenId",
          "type": "uint256"
        }
      ],
      "name": "transferFrom",
      "outputs": [],
      "stateMutability": "nonpayable",
      "type": "function"
    },
    {
      "inputs": [
        {
          "internalType": "address",
          "name": "newOwner",
          "type": "address"
        }
      ],
      "name": "transferOwnership",
      "outputs": [],
      "stateMutability": "nonpayable",
      "type": "function"
    }
  ],
  "bytecode": "0x60806040526001600b553480156200001657600080fd5b50336040518060400160405280600b81526020017f41657468656c204865726f0000000000000000000000000000000000000000008152506040518060400160405280600481526020017f4845524f00000000000000000000000000000000000000000000000000000000815250816000908162000095919062000477565b508060019081620000a7919062000477565b505050600073ffffffffffffffffffffffffffffffffffffffff168173ffffffffffffffffffffffffffffffffffffffff16036200011f5760006040517f1e4fbdf7000000000000000000000000000000000000000000000000000000008152600401620001169190620005a3565b60405180910390fd5b62000130816200013760201b60201c565b50620005c0565b6000600a60009054906101000a900473ffffffffffffffffffffffffffffffffffffffff16905081600a60006101000a81548173ffffffffffffffffffffffffffffffffffffffff021916908373ffffffffffffffffffffffffffffffffffffffff1602179055508173ffffffffffffffffffffffffffffffffffffffff168173ffffffffffffffffffffffffffffffffffffffff167f8be0079c531659141344cd1fd0a4f28419497f9722a3daafe3b4186f6b6457e060405160405180910390a35050565b600081519050919050565b7f4e487b7100000000000000000000000000000000000000000000000000000000600052604160045260246000fd5b7f4e487b7100000000000000000000000000000000000000000000000000000000600052602260045260246000fd5b600060028204905060018216806200027f57607f821691505b60208210810362000295576200029462000237565b5b50919050565b60008190508160005260206000209050919050565b60006020601f8301049050919050565b600082821b905092915050565b600060088302620002ff7fffffffffffffffffffffffffffffffffffffffffffffffffffffffffffffffff82620002c0565b6200030b8683620002c0565b95508019841693508086168417925050509392505050565b6000819050919050565b6000819050919050565b600062000358620003526200034c8462000323565b6200032d565b62000323565b9050919050565b6000819050919050565b620003748362000337565b6200038c62000383826200035f565b848454620002cd565b825550505050565b600090565b620003a362000394565b620003b081848462000369565b505050565b5b81811015620003d857620003cc60008262000399565b600181019050620003b6565b5050565b601f8211156200042757620003f1816200029b565b620003fc84620002b0565b810160208510156200040c578190505b620004246200041b85620002b0565b830182620003b5565b50505b505050565b600082821c905092915050565b60006200044c600019846008026200042c565b1980831691505092915050565b600062000467838362000439565b9150826002028217905092915050565b6200048282620001fd565b67ffffffffffffffff8111156200049e576200049d62000208565b5b620004aa825462000266565b620004b7828285620003dc565b600060209050601f831160018114620004ef5760008415620004da578287015190505b620004e6858262000459565b86555062000556565b601f198416620004ff866200029b565b60005b82811015620005295784890151825560018201915060208501945060208101905062000502565b8683101562000549578489015162000545601f89168262000439565b8355505b6001600288020188555050505b505050505050565b600073ffffffffffffffffffffffffffffffffffffffff82169050919050565b60006200058b826200055e565b9050919050565b6200059d816200057e565b82525050565b6000602082019050620005ba600083018462000592565b92915050565b612aec80620005d06000396000f3fe608060405234801561001057600080fd5b50600436106101585760003560e01c806361b8ce8c116100c357806395d89b411161007c57806395d89b41146103d9578063a22cb465146103f7578063b88d4fde14610413578063c87b56dd1461042f578063e985e9c51461045f578063f2fde38b1461048f57610158565b806361b8ce8c146103175780636352211e1461033557806370a0823114610365578063715018a614610395578063720eacad1461039f5780638da5cb5b146103bb57610158565b806323b872dd1161011557806323b872dd146102335780632f745c591461024f5780633cef28d21461027f57806340c10f19146102af57806342842e0e146102cb5780634f6ccce7146102e757610158565b806301ffc9a71461015d57806306fdde031461018d578063081812fc146101ab578063095ea7b3146101db5780630aaef285146101f757806318160ddd14610215575b600080fd5b61017760048036038101906101729190612121565b6104ab565b6040516101849190612169565b60405180910390f35b610195610525565b6040516101a29190612214565b60405180910390f35b6101c560048036038101906101c0919061226c565b6105b7565b6040516101d291906122da565b60405180910390f35b6101f560048036038101906101f09190612321565b6105d3565b005b6101ff6105e9565b60405161020c9190612370565b60405180910390f35b61021d6105ee565b60405161022a9190612370565b60405180910390f35b61024d6004803603810190610248919061238b565b6105fb565b005b61026960048036038101906102649190612321565b6106fd565b6040516102769190612370565b60405180910390f35b610299600480360381019061029491906123de565b6107a6565b6040516102a69190612370565b60405180910390f35b6102c960048036038101906102c49190612321565b6107be565b005b6102e560048036038101906102e0919061238b565b610803565b005b61030160048036038101906102fc919061226c565b610823565b60405161030e9190612370565b60405180910390f35b61031f610899565b60405161032c9190612370565b60405180910390f35b61034f600480360381019061034a919061226c565b61089f565b60405161035c91906122da565b60405180910390f35b61037f600480360381019061037a91906123de565b6108b1565b60405161038c9190612370565b60405180910390f35b61039d61096b565b005b6103b960048036038101906103b4919061226c565b61097f565b005b6103c3610ae2565b6040516103d091906122da565b60405180910390f35b6103e1610b0c565b6040516103ee9190612214565b60405180910390f35b610411600480360381019061040c9190612437565b610b9e565b005b61042d600480360381019061042891906125ac565b610bb4565b005b6104496004803603810190610444919061226c565b610bd9565b6040516104569190612214565b60405180910390f35b6104796004803603810190610474919061262f565b610c42565b6040516104869190612169565b60405180910390f35b6104a960048036038101906104a491906123de565b610cd6565b005b60007f780e9d63000000000000000000000000000000000000000000000000000000007bffffffffffffffffffffffffffffffffffffffffffffffffffffffff1916827bffffffffffffffffffffffffffffffffffffffffffffffffffffffff1916148061051e575061051d82610d5c565b5b9050919050565b6060600080546105349061269e565b80601f01602080910402602001604051908101604052809291908181526020018280546105609061269e565b80156105ad5780601f10610582576101008083540402835291602001916105ad565b820191906000526020600020905b81548152906001019060200180831161059057829003601f168201915b5050505050905090565b60006105c282610e3e565b506105cc82610ec6565b9050919050565b6105e582826105e0610f03565b610f0b565b5050565b600181565b6000600880549050905090565b600073ffffffffffffffffffffffffffffffffffffffff168273ffffffffffffffffffffffffffffffffffffffff160361066d5760006040517f64a0ae9200000000000000000000000000000000000000000000000000000000815260040161066491906122da565b60405180910390fd5b6000610681838361067c610f03565b610f1d565b90508373ffffffffffffffffffffffffffffffffffffffff168173ffffffffffffffffffffffffffffffffffffffff16146106f7578382826040517f64283d7b0000000000000000000000000000000000000000000000000000000081526004016106ee939291906126cf565b60405180910390fd5b50505050565b6000610708836108b1565b821061074d5782826040517fa57d13dc000000000000000000000000000000000000000000000000000000008152600401610744929190612706565b60405180910390fd5b600660008473ffffffffffffffffffffffffffffffffffffffff1673ffffffffffffffffffffffffffffffffffffffff168152602001908152602001600020600083815260200190815260200160002054905092915050565b600c6020528060005260406000206000915090505481565b6107c661103a565b60005b818110156107fe576107f183600b60008154809291906107e89061275e565b919050556110c1565b80806001019150506107c9565b505050565b61081e83838360405180602001604052806000815250610bb4565b505050565b600061082d6105ee565b8210610873576000826040517fa57d13dc00000000000000000000000000000000000000000000000000000000815260040161086a929190612706565b60405180910390fd5b60088281548110610887576108866127a6565b5b90600052602060002001549050919050565b600b5481565b60006108aa82610e3e565b9050919050565b60008073ffffffffffffffffffffffffffffffffffffffff168273ffffffffffffffffffffffffffffffffffffffff16036109245760006040517f89c62b6400000000000000000000000000000000000000000000000000000000815260040161091b91906122da565b60405180910390fd5b600360008373ffffffffffffffffffffffffffffffffffffffff1673ffffffffffffffffffffffffffffffffffffffff168152602001908152602001600020549050919050565b61097361103a565b61097d60006110df565b565b600081116109c2576040517f08c379a00000000000000000000000000000000000000000000000000000000081526004016109b990612821565b60405180910390fd5b600181600c60003373ffffffffffffffffffffffffffffffffffffffff1673ffffffffffffffffffffffffffffffffffffffff16815260200190815260200160002054610a0f9190612841565b1115610a50576040517f08c379a0000000000000000000000000000000000000000000000000000000008152600401610a47906128c1565b60405180910390fd5b80600c60003373ffffffffffffffffffffffffffffffffffffffff1673ffffffffffffffffffffffffffffffffffffffff1681526020019081526020016000206000828254610a9f9190612841565b9250508190555060005b81811015610ade57610ad133600b6000815480929190610ac89061275e565b919050556110c1565b8080600101915050610aa9565b5050565b6000600a60009054906101000a900473ffffffffffffffffffffffffffffffffffffffff16905090565b606060018054610b1b9061269e565b80601f0160208091040260200160405190810160405280929190818152602001828054610b479061269e565b8015610b945780601f10610b6957610100808354040283529160200191610b94565b820191906000526020600020905b815481529060010190602001808311610b7757829003601f168201915b5050505050905090565b610bb0610ba9610f03565b83836111a5565b5050565b610bbf8484846105fb565b610bd3610bca610f03565b85858585611314565b50505050565b6060610be482610e3e565b506000610bef6114c5565b90506000815111610c0f5760405180602001604052806000815250610c3a565b80610c19846114dc565b604051602001610c2a92919061291d565b6040516020818303038152906040525b915050919050565b6000600560008473ffffffffffffffffffffffffffffffffffffffff1673ffffffffffffffffffffffffffffffffffffffff16815260200190815260200160002060008373ffffffffffffffffffffffffffffffffffffffff1673ffffffffffffffffffffffffffffffffffffffff16815260200190815260200160002060009054906101000a900460ff16905092915050565b610cde61103a565b600073ffffffffffffffffffffffffffffffffffffffff168173ffffffffffffffffffffffffffffffffffffffff1603610d505760006040517f1e4fbdf7000000000000000000000000000000000000000000000000000000008152600401610d4791906122da565b60405180910390fd5b610d59816110df565b50565b60007f80ac58cd000000000000000000000000000000000000000000000000000000007bffffffffffffffffffffffffffffffffffffffffffffffffffffffff1916827bffffffffffffffffffffffffffffffffffffffffffffffffffffffff19161480610e2757507f5b5e139f000000000000000000000000000000000000000000000000000000007bffffffffffffffffffffffffffffffffffffffffffffffffffffffff1916827bffffffffffffffffffffffffffffffffffffffffffffffffffffffff1916145b80610e375750610e36826115aa565b5b9050919050565b600080610e4a83611614565b9050600073ffffffffffffffffffffffffffffffffffffffff168173ffffffffffffffffffffffffffffffffffffffff1603610ebd57826040517f7e273289000000000000000000000000000000000000000000000000000000008152600401610eb49190612370565b60405180910390fd5b80915050919050565b60006004600083815260200190815260200160002060009054906101000a900473ffffffffffffffffffffffffffffffffffffffff169050919050565b600033905090565b610f188383836001611651565b505050565b600080610f2b858585611816565b9050600073ffffffffffffffffffffffffffffffffffffffff168173ffffffffffffffffffffffffffffffffffffffff1603610f6f57610f6a84611a30565b610fae565b8473ffffffffffffffffffffffffffffffffffffffff168173ffffffffffffffffffffffffffffffffffffffff1614610fad57610fac8185611a79565b5b5b600073ffffffffffffffffffffffffffffffffffffffff168573ffffffffffffffffffffffffffffffffffffffff1603610ff057610feb84611b64565b61102f565b8473ffffffffffffffffffffffffffffffffffffffff168173ffffffffffffffffffffffffffffffffffffffff161461102e5761102d8585611c35565b5b5b809150509392505050565b611042610f03565b73ffffffffffffffffffffffffffffffffffffffff16611060610ae2565b73ffffffffffffffffffffffffffffffffffffffff16146110bf57611083610f03565b6040517f118cdaa70000000000000000000000000000000000000000000000000000000081526004016110b691906122da565b60405180910390fd5b565b6110db828260405180602001604052806000815250611cc0565b5050565b6000600a60009054906101000a900473ffffffffffffffffffffffffffffffffffffffff16905081600a60006101000a81548173ffffffffffffffffffffffffffffffffffffffff021916908373ffffffffffffffffffffffffffffffffffffffff1602179055508173ffffffffffffffffffffffffffffffffffffffff168173ffffffffffffffffffffffffffffffffffffffff167f8be0079c531659141344cd1fd0a4f28419497f9722a3daafe3b4186f6b6457e060405160405180910390a35050565b600073ffffffffffffffffffffffffffffffffffffffff168273ffffffffffffffffffffffffffffffffffffffff160361121657816040517f5b08ba1800000000000000000000000000000000000000000000000000000000815260040161120d91906122da565b60405180910390fd5b80600560008573ffffffffffffffffffffffffffffffffffffffff1673ffffffffffffffffffffffffffffffffffffffff16815260200190815260200160002060008473ffffffffffffffffffffffffffffffffffffffff1673ffffffffffffffffffffffffffffffffffffffff16815260200190815260200160002060006101000a81548160ff0219169083151502179055508173ffffffffffffffffffffffffffffffffffffffff168373ffffffffffffffffffffffffffffffffffffffff167f17307eab39ab6107e8899845ad3d59bd9653f200f220920489ca2b5937696c31836040516113079190612169565b60405180910390a3505050565b60008373ffffffffffffffffffffffffffffffffffffffff163b11156114be578273ffffffffffffffffffffffffffffffffffffffff1663150b7a02868685856040518563ffffffff1660e01b81526004016113739493929190612996565b6020604051808303816000875af19250505080156113af57506040513d601f19601f820116820180604052508101906113ac91906129f7565b60015b611433573d80600081146113df576040519150601f19603f3d011682016040523d82523d6000602084013e6113e4565b606091505b50600081510361142b57836040517f64a0ae9200000000000000000000000000000000000000000000000000000000815260040161142291906122da565b60405180910390fd5b805160208201fd5b63150b7a0260e01b7bffffffffffffffffffffffffffffffffffffffffffffffffffffffff1916817bffffffffffffffffffffffffffffffffffffffffffffffffffffffff1916146114bc57836040517f64a0ae920000000000000000000000000000000000000000000000000000000081526004016114b391906122da565b60405180910390fd5b505b5050505050565b606060405180602001604052806000815250905090565b6060600060016114eb84611ce4565b01905060008167ffffffffffffffff81111561150a57611509612481565b5b6040519080825280601f01601f19166020018201604052801561153c5781602001600182028036833780820191505090505b509050600082602083010190505b60011561159f578080600190039150507f3031323334353637383961626364656600000000000000000000000000000000600a86061a8153600a858161159357611592612a24565b5b0494506000850361154a575b819350505050919050565b60007f01ffc9a7000000000000000000000000000000000000000000000000000000007bffffffffffffffffffffffffffffffffffffffffffffffffffffffff1916827bffffffffffffffffffffffffffffffffffffffffffffffffffffffff1916149050919050565b60006002600083815260200190815260200160002060009054906101000a900473ffffffffffffffffffffffffffffffffffffffff169050919050565b808061168a5750600073ffffffffffffffffffffffffffffffffffffffff168273ffffffffffffffffffffffffffffffffffffffff1614155b156117be57600061169a84610e3e565b9050600073ffffffffffffffffffffffffffffffffffffffff168373ffffffffffffffffffffffffffffffffffffffff161415801561170557508273ffffffffffffffffffffffffffffffffffffffff168173ffffffffffffffffffffffffffffffffffffffff1614155b801561171857506117168184610c42565b155b1561175a57826040517fa9fbf51f00000000000000000000000000000000000000000000000000000000815260040161175191906122da565b60405180910390fd5b81156117bc57838573ffffffffffffffffffffffffffffffffffffffff168273ffffffffffffffffffffffffffffffffffffffff167f8c5be1e5ebec7d5bd14f71427d1e84f3dd0314c0f7b2291e5b200ac8c7c3b92560405160405180910390a45b505b836004600085815260200190815260200160002060006101000a81548173ffffffffffffffffffffffffffffffffffffffff021916908373ffffffffffffffffffffffffffffffffffffffff16021790555050505050565b60008061182284611614565b9050600073ffffffffffffffffffffffffffffffffffffffff168373ffffffffffffffffffffffffffffffffffffffff161461186457611863818486611e37565b5b600073ffffffffffffffffffffffffffffffffffffffff168173ffffffffffffffffffffffffffffffffffffffff16146118f5576118a6600085600080611651565b6001600360008373ffffffffffffffffffffffffffffffffffffffff1673ffffffffffffffffffffffffffffffffffffffff168152602001908152602001600020600082825403925050819055505b600073ffffffffffffffffffffffffffffffffffffffff168573ffffffffffffffffffffffffffffffffffffffff1614611978576001600360008773ffffffffffffffffffffffffffffffffffffffff1673ffffffffffffffffffffffffffffffffffffffff168152602001908152602001600020600082825401925050819055505b846002600086815260200190815260200160002060006101000a81548173ffffffffffffffffffffffffffffffffffffffff021916908373ffffffffffffffffffffffffffffffffffffffff160217905550838573ffffffffffffffffffffffffffffffffffffffff168273ffffffffffffffffffffffffffffffffffffffff167fddf252ad1be2c89b69c2b068fc378daa952ba7f163c4a11628f55a4df523b3ef60405160405180910390a4809150509392505050565b6008805490506009600083815260200190815260200160002081905550600881908060018154018082558091505060019003906000526020600020016000909190919091505550565b6000611a84836108b1565b90506000600760008481526020019081526020016000205490506000600660008673ffffffffffffffffffffffffffffffffffffffff1673ffffffffffffffffffffffffffffffffffffffff1681526020019081526020016000209050828214611b305760008160008581526020019081526020016000205490508082600085815260200190815260200160002081905550826007600083815260200190815260200160002081905550505b6007600085815260200190815260200160002060009055806000848152602001908152602001600020600090555050505050565b60006001600880549050611b789190612a53565b9050600060096000848152602001908152602001600020549050600060088381548110611ba857611ba76127a6565b5b906000526020600020015490508060088381548110611bca57611bc96127a6565b5b906000526020600020018190555081600960008381526020019081526020016000208190555060096000858152602001908152602001600020600090556008805480611c1957611c18612a87565b5b6001900381819060005260206000200160009055905550505050565b60006001611c42846108b1565b611c4c9190612a53565b905081600660008573ffffffffffffffffffffffffffffffffffffffff1673ffffffffffffffffffffffffffffffffffffffff168152602001908152602001600020600083815260200190815260200160002081905550806007600084815260200190815260200160002081905550505050565b611cca8383611efb565b611cdf611cd5610f03565b6000858585611314565b505050565b600080600090507a184f03e93ff9f4daa797ed6e38ed64bf6a1f0100000000000000008310611d42577a184f03e93ff9f4daa797ed6e38ed64bf6a1f0100000000000000008381611d3857611d37612a24565b5b0492506040810190505b6d04ee2d6d415b85acef81000000008310611d7f576d04ee2d6d415b85acef81000000008381611d7557611d74612a24565b5b0492506020810190505b662386f26fc100008310611dae57662386f26fc100008381611da457611da3612a24565b5b0492506010810190505b6305f5e1008310611dd7576305f5e1008381611dcd57611dcc612a24565b5b0492506008810190505b6127108310611dfc576127108381611df257611df1612a24565b5b0492506004810190505b60648310611e1f5760648381611e1557611e14612a24565b5b0492506002810190505b600a8310611e2e576001810190505b80915050919050565b611e42838383611ff4565b611ef657600073ffffffffffffffffffffffffffffffffffffffff168373ffffffffffffffffffffffffffffffffffffffff1603611eb757806040517f7e273289000000000000000000000000000000000000000000000000000000008152600401611eae9190612370565b60405180910390fd5b81816040517f177e802f000000000000000000000000000000000000000000000000000000008152600401611eed929190612706565b60405180910390fd5b505050565b600073ffffffffffffffffffffffffffffffffffffffff168273ffffffffffffffffffffffffffffffffffffffff1603611f6d5760006040517f64a0ae92000000000000000000000000000000000000000000000000000000008152600401611f6491906122da565b60405180910390fd5b6000611f7b83836000610f1d565b9050600073ffffffffffffffffffffffffffffffffffffffff168173ffffffffffffffffffffffffffffffffffffffff1614611fef5760006040517f73c6ac6e000000000000000000000000000000000000000000000000000000008152600401611fe691906122da565b60405180910390fd5b505050565b60008073ffffffffffffffffffffffffffffffffffffffff168373ffffffffffffffffffffffffffffffffffffffff16141580156120ac57508273ffffffffffffffffffffffffffffffffffffffff168473ffffffffffffffffffffffffffffffffffffffff16148061206d575061206c8484610c42565b5b806120ab57508273ffffffffffffffffffffffffffffffffffffffff1661209383610ec6565b73ffffffffffffffffffffffffffffffffffffffff16145b5b90509392505050565b6000604051905090565b600080fd5b600080fd5b60007fffffffff0000000000000000000000000000000000000000000000000000000082169050919050565b6120fe816120c9565b811461210957600080fd5b50565b60008135905061211b816120f5565b92915050565b600060208284031215612137576121366120bf565b5b60006121458482850161210c565b91505092915050565b60008115159050919050565b6121638161214e565b82525050565b600060208201905061217e600083018461215a565b92915050565b600081519050919050565b600082825260208201905092915050565b60005b838110156121be5780820151818401526020810190506121a3565b60008484015250505050565b6000601f19601f8301169050919050565b60006121e682612184565b6121f0818561218f565b93506122008185602086016121a0565b612209816121ca565b840191505092915050565b6000602082019050818103600083015261222e81846121db565b905092915050565b6000819050919050565b61224981612236565b811461225457600080fd5b50565b60008135905061226681612240565b92915050565b600060208284031215612282576122816120bf565b5b600061229084828501612257565b91505092915050565b600073ffffffffffffffffffffffffffffffffffffffff82169050919050565b60006122c482612299565b9050919050565b6122d4816122b9565b82525050565b60006020820190506122ef60008301846122cb565b92915050565b6122fe816122b9565b811461230957600080fd5b50565b60008135905061231b816122f5565b92915050565b60008060408385031215612338576123376120bf565b5b60006123468582860161230c565b925050602061235785828601612257565b9150509250929050565b61236a81612236565b82525050565b60006020820190506123856000830184612361565b92915050565b6000806000606084860312156123a4576123a36120bf565b5b60006123b28682870161230c565b93505060206123c38682870161230c565b92505060406123d486828701612257565b9150509250925092565b6000602082840312156123f4576123f36120bf565b5b60006124028482850161230c565b91505092915050565b6124148161214e565b811461241f57600080fd5b50565b6000813590506124318161240b565b92915050565b6000806040838503121561244e5761244d6120bf565b5b600061245c8582860161230c565b925050602061246d85828601612422565b9150509250929050565b600080fd5b600080fd5b7f4e487b7100000000000000000000000000000000000000000000000000000000600052604160045260246000fd5b6124b9826121ca565b810181811067ffffffffffffffff821117156124d8576124d7612481565b5b80604052505050565b60006124eb6120b5565b90506124f782826124b0565b919050565b600067ffffffffffffffff82111561251757612516612481565b5b612520826121ca565b9050602081019050919050565b82818337600083830152505050565b600061254f61254a846124fc565b6124e1565b90508281526020810184848401111561256b5761256a61247c565b5b61257684828561252d565b509392505050565b600082601f83011261259357612592612477565b5b81356125a384826020860161253c565b91505092915050565b600080600080608085870312156125c6576125c56120bf565b5b60006125d48782880161230c565b94505060206125e58782880161230c565b93505060406125f687828801612257565b925050606085013567ffffffffffffffff811115612617576126166120c4565b5b6126238782880161257e565b91505092959194509250565b60008060408385031215612646576126456120bf565b5b60006126548582860161230c565b92505060206126658582860161230c565b9150509250929050565b7f4e487b7100000000000000000000000000000000000000000000000000000000600052602260045260246000fd5b600060028204905060018216806126b657607f821691505b6020821081036126c9576126c861266f565b5b50919050565b60006060820190506126e460008301866122cb565b6126f16020830185612361565b6126fe60408301846122cb565b949350505050565b600060408201905061271b60008301856122cb565b6127286020830184612361565b9392505050565b7f4e487b7100000000000000000000000000000000000000000000000000000000600052601160045260246000fd5b600061276982612236565b91507fffffffffffffffffffffffffffffffffffffffffffffffffffffffffffffffff820361279b5761279a61272f565b5b600182019050919050565b7f4e487b7100000000000000000000000000000000000000000000000000000000600052603260045260246000fd5b7f7174793d30000000000000000000000000000000000000000000000000000000600082015250565b600061280b60058361218f565b9150612816826127d5565b602082019050919050565b6000602082019050818103600083015261283a816127fe565b9050919050565b600061284c82612236565b915061285783612236565b925082820190508082111561286f5761286e61272f565b5b92915050565b7f6c696d6974207265616368656400000000000000000000000000000000000000600082015250565b60006128ab600d8361218f565b91506128b682612875565b602082019050919050565b600060208201905081810360008301526128da8161289e565b9050919050565b600081905092915050565b60006128f782612184565b61290181856128e1565b93506129118185602086016121a0565b80840191505092915050565b600061292982856128ec565b915061293582846128ec565b91508190509392505050565b600081519050919050565b600082825260208201905092915050565b600061296882612941565b612972818561294c565b93506129828185602086016121a0565b61298b816121ca565b840191505092915050565b60006080820190506129ab60008301876122cb565b6129b860208301866122cb565b6129c56040830185612361565b81810360608301526129d7818461295d565b905095945050505050565b6000815190506129f1816120f5565b92915050565b600060208284031215612a0d57612a0c6120bf565b5b6000612a1b848285016129e2565b91505092915050565b7f4e487b7100000000000000000000000000000000000000000000000000000000600052601260045260246000fd5b6000612a5e82612236565b9150612a6983612236565b9250828203905081811115612a8157612a8061272f565b5b92915050565b7f4e487b7100000000000000000000000000000000000000000000000000000000600052603160045260246000fdfea2646970667358221220a592e75e7361cb9eb33bd4ff804f8a1fa9ff94bfa9e3108ce69d2a5ed43a146664736f6c63430008180033",
  "linkReferences": {},
  "deployedLinkReferences": {}
}